:020000040000FA
:100000000C947C000C94A4000C94A4000C94A40008
:100010000C94A4000C94A4000C94A4000C94A215BD
:100020000C94A4000C94A4000C94A4000C94A400C0
:100030000C94A4000C94A4000C94A4000C94A400B0
:100040000C9458150C94A4000C9448160C94221689
:100050000C94A4000C94A4000C94A4000C94A40090
:100060000C947A160C94A4000200000000240027CF
:10007000002A0000000000230026002900000000E4
:100080000800020100000304070000000000000057
:1000900000CDCCCC3D0AD7233C17B7D13877CC2B39
:1000A000329595E6241FB14F0A000020410000C898
:1000B0004200401C4620BCBE4CCA1B0E5AAEC59D19
:1000C000740102040810204080010204081020017D
:1000D000020408102000000000250028002B000466
:1000E00004040404040404020202020202030303DF
:1000F00003030300D317B31711241FBECFEFD8E0BB
:10010000DEBFCDBF23E0A6E1B2E001C01D92A23A5E
:10011000B207E1F712E0A0E0B1E0EAE6F6E402C0DF
:1001200005900D92A631B107D9F710E0CBE7D0E0EA
:1001300004C02197FE010E942021CA37D107C9F7C8
:100140000E94C2180C9428230C9400002F923F9216
:100150004F925F926F927F928F929F92AF92BF92D7
:10016000CF92DF92EF92FF920F931F93CF93DF9383
:1001700000D000D000D01F92CDB7DEB79A8389831C
:100180004A015B0120E836E948E15BE4CB01B401B8
:100190000E94E52087FD89C004E110E080E290E044
:1001A0009C838B83312C212CF801E755FF4F25913F
:1001B000359145915491C501B4010E94E52087FD18
:1001C00011C0F801EF56FF4F25913591459154919B
:1001D000C501B4010E943A1F4B015C01AB81BC8197
:1001E0002A0E3B1EEB81FC81F595E795FC83EB83A2
:1001F000045011090C3FFFEF1F07B1F677247A94E2
:1002000020E030E0A901C501B4010E94E5201816E4
:100210000CF054C02CEA35EC47E257E3C501B401B9
:100220000E94D41E18160CF449C0972DA4E09A021F
:1002300080011124F12CE12CF801EF56FF4F6F01E2
:1002400007551F4FFFEF7F1609F438C0F601EE0D7A
:10025000FF1D659175918591949120E030E040E219
:1002600051E40E943A1FA50194010E94E52018164E
:100270008CF4F801EE0DFF1D2591359145915491B7
:10028000C501B4010E943A1F4B015C018B819C8126
:10029000281A390AAB81BC81B595A795BC83AB837D
:1002A0007A94B4E0EB1AF108CDCF80E290E09C8321
:1002B0008B8335E0732E312C212CA2CFC501B401E4
:1002C0000E94B6206B017C012B013C0180E492E48A
:1002D000AFE0B0E08B839C83AD83BE8396E09F83C9
:1002E000AAE04A16510461047104E0F06B817C813C
:1002F0008D819E812AE030E040E050E00E94FE20A7
:100300002B833C834D835E83BF81B150BF83C30188
:10031000B2012AE030E040E050E00E94FE202901D6
:100320003A01DECFC701B6010E94D91E9B01AC0184
:10033000C501B4010E9449204B015C016B817C81A5
:100340008D819E810E94D91E9B01AC01C501B40123
:100350000E943A1F2B013C010E94B6204B015C0118
:100360000E94D91E9B01AC01C301B2010E94492029
:100370009B01AC010E944A200E94B620860E971E67
:10038000A81EB91E8B819C81AD81BE8188169906FD
:10039000AA06BB06C0F09FEFC91AD90AE90AF90AF2
:1003A0002114310439F1AAE0CA16D104E104F104A0
:1003B00008F1BFEF2B1A3B0A812C912C5401C12C60
:1003C000D12C7601C3948AE0482E512C612C712CDB
:1003D000C501B401A30192010E94FE20672B682B86
:1003E000692B61F4EF811E164CF449015A01E1506A
:1003F000EF83EECF812C912C5401E5CFA981BA81F6
:10040000CD92DD92ED92FC921397FD01848295824C
:10041000A682B782318620868F818287CD0127967A
:100420000FB6F894DEBF0FBECDBFDF91CF911F9105
:100430000F91FF90EF90DF90CF90BF90AF909F9083
:100440008F907F906F905F904F903F902F90089586
:10045000833081F028F4813099F08230A9F008953A
:100460008730A9F08830C9F08430B1F480918000E1
:100470008F7D03C0809180008F77809380000895E6
:1004800084B58F7784BD089584B58F7DFBCF80912F
:10049000B0008F778093B00008958091B0008F7D79
:1004A000F9CFCF93DF93282F30E0F901E358FF4FC6
:1004B0008491F901EF53FF4FD491F901E152FF4FBD
:1004C000C491CC23A1F081110E942802EC2FF0E00E
:1004D000EE0FFF1FED58FF4FA591B491EC91ED2366
:1004E00081E090E009F480E0DF91CF91089580E011
:1004F00090E0FACF1F93CF93DF93282F30E0F901DC
:10050000E358FF4F8491F901EF53FF4FD491F90164
:10051000E152FF4FC491CC23A9F0162F81110E9404
:100520002802EC2FF0E0EE0FFF1FEB52FF4FA591DA
:10053000B4918FB7F894EC91111108C0D095DE23D7
:10054000DC938FBFDF91CF911F910895DE2BF8CF01
:10055000CF93DF9390E0FC01EF53FF4F2491815242
:100560009F4FFC0184918823C9F090E0880F991F68
:10057000FC01E759FF4FA591B491FC01EB52FF4FED
:10058000C591D49161110DC09FB7F8948C912095BD
:1005900082238C938881282328839FBFDF91CF916A
:1005A0000895623051F49FB7F8943C91822F809562
:1005B00083238C93E8812E2BEFCF8FB7F894EC91A7
:1005C0002E2B2C938FBFEACF3FB7F89480919702E0
:1005D00090919802A0919902B0919A0226B5A89B99
:1005E00005C02F3F19F00196A11DB11D3FBFBA2FC5
:1005F000A92F982F8827BC01CD01620F711D811D85
:10060000911D42E0660F771F881F991F4A95D1F709
:1006100008958F929F92AF92BF92CF92DF92EF9206
:10062000FF924B015C010E94E4026B017C010E947D
:10063000E4026C197D098E099F09683E73408105AB
:100640009105A8F321E0821A9108A108B10888EE6B
:10065000C80E83E0D81EE11CF11C81149104A10492
:10066000B10429F7FF90EF90DF90CF90BF90AF904B
:100670009F908F9008950895AF92BF92CF92DF928E
:10068000EF92FF920F931F93CF93DF936C017B0147
:100690008B01040F151FEB015E01AE18BF08C017D8
:1006A000D10759F06991D601ED91FC910190F0814B
:1006B000E02DC6010995892B79F7C501DF91CF910E
:1006C0001F910F91FF90EF90DF90CF90BF90AF9070
:1006D0000895FC01538D448D252F30E0842F90E048
:1006E000821B930B541710F0CF960895019708952D
:1006F000FC01918D828D981761F0A28DAE0FBF2FF6
:10070000B11D5D968C91928D9F5F9F73928F90E04B
:1007100008958FEF9FEF08952FB7F89480919B0273
:1007200090919C02A0919D02B0919E022FBF809358
:10073000A7029093A802A093A902B093AA028FE9FE
:1007400092E00E94780397FF26C02FB7F89480911B
:100750009B0290919C02A0919D02B0919E022FBF9E
:100760004091A7025091A8026091A9027091AA023B
:10077000841B950BA60BB70B4091A3025091A402CA
:100780006091A5027091A60284179507A607B70786
:10079000B0F28FEF9FEF0895FC01918D828D981735
:1007A00031F0828DE80FF11D858D90E008958FEF77
:1007B0009FEF0895FC01918D228D892F90E0805C40
:1007C0009F4F821B91098F73992708958FE992E0BB
:1007D0000E94DA0321E0892B09F420E0822F08959A
:1007E00080E090E0892B29F00E94E60381110C94AF
:1007F00000000895FC01A48DA80FB92FB11DA35AC4
:10080000BF4F2C91848D90E001968F739927848F30
:10081000A689B7892C93A089B1898C918370806453
:100820008C93938D848D981306C00288F389E02DF4
:1008300080818F7D80830895EF92FF920F931F93A5
:10084000CF93DF93EC0181E0888F9B8D8C8D981383
:100850001AC0E889F989808185FF15C09FB7F8948F
:10086000EE89FF896083E889F989808183708064DB
:1008700080839FBF81E090E0DF91CF911F910F9126
:10088000FF90EF900895F62E0B8D10E00F5F1F4F35
:100890000F731127E02E8C8D8E110CC00FB607FC44
:1008A000FACFE889F989808185FFF5CFCE010E94D2
:1008B000FA03F1CFEB8DEC0FFD2FF11DE35AFF4F43
:1008C000F0829FB7F8940B8FEA89FB898081806260
:1008D000CFCFCF93DF93EC01888D8823B9F0AA891D
:1008E000BB89E889F9898C9185FD03C0808186FDEB
:1008F0000DC00FB607FCF7CF8C9185FFF2CF80813A
:1009000085FFEDCFCE010E94FA03E9CFDF91CF91B1
:10091000089520914702260F3327331F21323105D6
:10092000ECF420916B02FC0190E080E0243069F04F
:1009300082E00895A09147022191AC01495D5D4F8D
:10094000A40FB52FB11D2C930196861798F38091B3
:100950004702680F6093470280E0089581E00895A0
:1009600008958FEF9FEF08958FEF9FEF0895809187
:10097000200290E09195819591090895CF93DF939E
:10098000CB01EA01642F0E948904CE01DF91CF914F
:100990000895CF93DF931F92CDB7DEB7698361E0EF
:1009A000CE0101960E94890481E090E00F90DF91D2
:1009B000CF91089590E080E008956F3FA9F0E62F71
:1009C000E295EF7044E0E49F90011124DC01ED9189
:1009D000FC91E20FF31F6F7082819381B6E06B9FF1
:1009E000800D911D1124089590E080E00895CF932B
:1009F000DF93EC0188819981DC01ED91FC910190FC
:100A0000F081E02D09952A813B81820F931F9B8302
:100A10008A83DF91CF910895982F80336CF08A33C9
:100A200024F08F3524F08B3724F481E0089581344D
:100A30001CF081E09B350CF080E00895CF93DF93AC
:100A4000EC0188819981DC01ED91FC910280F381B8
:100A5000E02D09952A813B81820F931F9B838A8316
:100A6000DF91CF9108958F929F92AF92BF92CF92D4
:100A7000DF92EF92FF920F931F93CF93DF93CDB747
:100A8000DEB766970FB6F894DEBF0FBECDBF6C0120
:100A90008E01095E1F4F78018AE0882E912CA12CCF
:100AA000B12CCB01BA01A50194010E94FE20942F24
:100AB000852F605DF80162938F01A901692F782F5E
:100AC000411551056105710561F7A7014E1B5F0BCB
:100AD000BF01C6010E941E0566960FB6F894DEBFE0
:100AE0000FBECDBFDF91CF911F910F91FF90EF907F
:100AF000DF90CF90BF90AF909F908F900895FC01B2
:100B00008485811114C0A781B085818592852FEFDE
:100B10003FEFA817B90730F4CD010196908787837E
:100B20002C9130E037FD20E0238781E084878385A6
:100B300008951F93CF93DF93EC01162F0E947F053A
:100B4000811306C01C8681E0DF91CF911F9108952B
:100B500080E0FACF0F931F93CF93DF938C01EB01CB
:100B60008991882369F0C8010E947F05882379F064
:100B7000FE013197908198130DC0F8011486F0CFD3
:100B800090E080E0DF91CF911F910F91089582E076
:100B900090E0F8CF83E090E0F5CFCF93DF93EC01C6
:100BA000CE010E947F058B304CF489305CF48823A1
:100BB00059F081E08E8390E080E00BC08D3011F021
:100BC0008032B9F71C86ECCF8E81811105C081E09F
:100BD00090E0DF91CF91089582E090E0FACFCF933B
:100BE000DF93DB01FC01808191810097E1F0129697
:100BF0002C91129713964C911397342F3F77FC0149
:100C000043814217130671F7ED91FC911197EC01A6
:100C100024962E0F3F1FE217F30729F051914991B7
:100C20005417C9F3DFCFDF91CF910895DC015296BD
:100C30009C915297915084E0989F90011124509676
:100C4000ED91FC91E20FF31F2281338121153105D3
:100C500079F041818081481758F481E0840F8183C5
:100C600086E0489F200D311D11242115310521F406
:100C700060E070E08FEF0895B901892F8295807F41
:100C8000840F0895DF92EF92FF920F931F93CF93FB
:100C9000DF93EC017B01D12C688979898A89D81688
:100CA000E0F484E0D89E80011124060F171FD801BC
:100CB00012966D917C916115710541F0D701ED910E
:100CC000FC910280F381E02DC7010995F8011382A0
:100CD000128210821182D394DFCF1A8A8FEF8C8B0D
:100CE000C617D70761F0D701ED91FC910280F3811F
:100CF000E02DC7010995D98BC88B84E08B8BDF91E0
:100D0000CF911F910F91FF90EF90DF900895CF92B8
:100D1000DF92EF92FF920F931F93CF93DF937C01AB
:100D20006B018A01FC01C081D1814F3F510509F05F
:100D3000B0F4E881F9810480F581E02D4B5F5F4FCD
:100D4000CE010995009759F0FC010383DF91CF9103
:100D50001F910F91FF90EF90DF90CF900895E88161
:100D6000F9810280F381E02DB601CE01099581E081
:100D7000F701828390E080E0E9CF1F93CF93DF9368
:100D8000EC01162F6A817B816115710589F04C8118
:100D90005D81FB0183818417150651F4440F551FB3
:100DA0004F5F5F4F888199810E9487069B838A836A
:100DB0008A819B81009759F02C813D81A9014F5F69
:100DC0005F4F5D834C83820F931FFC011483DF917F
:100DD000CF911F9108959F92AF92BF92CF92DF92D1
:100DE000EF92FF920F931F93CF93DF9300D000D029
:100DF0001F92CDB7DEB78C010E947F05D82EF80177
:100E00001486F12CE12C60EFC62EC8010E947F05EC
:100E1000F8011486D81609F4B3C0811113C082E01A
:100E200090E00F900F900F900F900F90DF91CF9167
:100E30001F910F91FF90EF90DF90CF90BF90AF90F8
:100E40009F9008958C3509F099C0C8010E947F05D4
:100E5000882329F3EDE2F1E0853709F083C0F8013A
:100E6000148654E0952EB12CA12CC8010E947F0558
:100E70008823A9F2813434F48053803130F083E048
:100E800090E0CFCF8F7D8753F8CF44E0AA0CBB1CF6
:100E90004A95E1F7A82AF80114869A949110E5CFB3
:100EA000C501985D8115944020F47501F3E0FF229F
:100EB000ACCFC5019C5D81159440A8F483E0B822B5
:100EC000B701762F6627770F770F6A297B2990E085
:100ED00080E00196603871058105910540F4C801F4
:100EE0000E94BD0692CFB50190E080E0F3CF198259
:100EF000262F2F7320682A8326E09695879577956D
:100F000067952A95D1F76032710580F4606C6B8328
:100F10005E01E4E0AE0EB11CF50162915F01662353
:100F200009F473CFC8010E94BD06F6CF262F2F7398
:100F300020682B8386E0769567958A95E1F7603186
:100F4000710538F4606E6C835E01F5E0AF0EB11C84
:100F5000E3CF60686C83CD825E0126E0A20EB11CF7
:100F6000DBCF32969081992309F489CF8913F9CF89
:100F70008181882309F483CFF8011486682FAFCFCD
:100F800082819381892B19F484E090E04ACF90E02C
:100F900080E047CFAF92BF92CF92DF92EF92FF9265
:100FA0000F931F93CF93DF9300D000D0CDB7DEB760
:100FB000DC0112962D913C9113972C5F3F4F1496B4
:100FC0004D915C914430510580F57901D901E0E003
:100FD000142F022FFA2FF21BF11730F4DD90F1E0FD
:100FE000D110F0E0EF2BF6CFE1111FC082E0FB0142
:100FF00084838E2D801B811728F4D7018D917D016C
:101000008193F7CF640F751FFB0110820F900F9033
:101010000F900F90DF91CF911F910F91FF90EF9064
:10102000DF90CF90BF90AF9008957B018C01420F6D
:10103000531FDA011C92FC01C080D180A480B580CE
:101040003A832983AB828B2D8F778C83BE016F5FB0
:101050007F4FC60103960E94EF050097D9F4D8018F
:1010600012966D917C91A501C6010E948706D80158
:10107000ED91FC9123813481DC012D933C93948389
:101080008383F8011382128225E0F7012483918380
:101090008083BCCFDC0112962C9112972F5F1296A1
:1010A0002C93F2CFDB01ED91FC9111970280F3813B
:1010B000E02DBC01CD010994AF92BF92CF92DF9297
:1010C000EF92FF920F931F93CF93DF93EC018B016D
:1010D0008C8180FF24C0A881B981FB018381948128
:1010E00030E020E00097D9F0A817B907D1F5F80152
:1010F0006081718112968C911297815012968C9317
:10110000129781110CC08D919C9111972115310579
:1011100029F1F90191838083CD010E9452088C81CD
:10112000807631F1209721F1F8805801F5E1AF0E7A
:10113000B11C8FEFF816D1F06F2DC5010E94DD04B0
:101140006C01FC01E580B8010E945C08F801818D0A
:10115000F6018083F801F18EFE2CEBCF948383831C
:10116000DBCF9C01FC0180819181BCCFF882F982A8
:101170001C82DF91CF911F910F91FF90EF90DF9034
:10118000CF90BF90AF9008950F931F93CF93DF93AD
:10119000EC016881798105960E9442061A820881D5
:1011A00019818B819C81009749F0FC01208131815C
:1011B0003C832B83B8010E945208F3CFDF91CF917B
:1011C0001F910F910895CF93DF93EC01CB01CF3F97
:1011D000D10509F0B0F4BE016B5F7F4F6C177D073E
:1011E00080F0DC01ED91FC910190F081E02D0995FA
:1011F000009721F0FC01C38321E02283DF91CF918E
:10120000089590E080E0FACF8F929F92AF92BF92C4
:10121000CF92DF92EF92FF920F931F93CF93DF93C2
:1012200000D000D0CDB7DEB7DC0169014A0141151D
:10123000510509F456C077FF08C084E014968C93DA
:1012400014974D935C9381E04DC07F777B016430B0
:10125000710518F5FA0190E0242F8E2F8819861752
:1012600030F4819131E0811130E0932BF6CF911170
:1012700014C082E014968C9314978D01842F821BE6
:10128000861738F4FA018191AF01F80181938F013B
:10129000F5CFA60FB11D1C92D6CF8D01F601A0800F
:1012A000B1809A8289826B837C83BE016F5F7F4F9E
:1012B000C60103960E94EF05009751F0FC012281C0
:1012C0002F5F228325E0F801248391838083BBCFA5
:1012D000B501C7010E94E3080097A9F481E0F60177
:1012E000828380E00F900F900F900F90DF91CF914D
:1012F0001F910F91FF90EF90DF90CF90BF90AF9034
:101300009F908F900895E981FA81DC011496A701DE
:101310004E0F5F1FE417F50719F021912D93FACFB7
:10132000FC01EE0DFF1D1482F60123813481FC01C6
:1013300031832083F60194838383C4CFCF93DF93DB
:10134000EC0188819981009711F00E94C2211982D5
:1013500018821D821C821B821A82DF91CF91089510
:10136000FC0180819181009711F00C94C2210895B5
:10137000CB010C94C221CB010C942621FC010190DD
:101380000020E9F73197AF01481B590BBC018FE9E9
:1013900092E00C943C0380E491E00C94BE09CF935E
:1013A000DF93FC0144815581608171818FE992E076
:1013B0000E943C03EC010E94CB098C0F9D1FDF9122
:1013C000CF910895CF93DF930E94BE09EC010E9454
:1013D000CB098C0F9D1FDF91CF910895FB010190E8
:1013E0000020E9F73197AF01461B570B0C941E05FF
:1013F000CF92DF92EF92FF920F931F93CF93DF93E1
:101400008C016B017A0162E20E94F704E601EC0CA8
:10141000FD1CEC16FD0699F06991EDE2F1E0D48037
:10142000DD20C9F0329683816813F9CF6CE5C801DD
:101430000E94F7046D2DC8010E94F704EACF62E212
:10144000C801DF91CF911F910F91FF90EF90DF9036
:10145000CF900C94F7046111EECF63E471E0C80102
:101460000E94EE09D6CFFC0130E020E06115710545
:1014700049F0DB010D900020E9F79D012150310971
:10148000261B370B718360832283832F8F77938191
:101490009078982B40FB97F9938308952F923F9271
:1014A0004F925F926F927F928F929F92AF92BF9274
:1014B000CF92DF92EF92FF920F931F93CF93DF9320
:1014C000CDB7DEB7A1970FB6F894DEBF0FBECDBF84
:1014D0007C018B01DC0114968C911497863009F401
:1014E00071C1E0F4833009F45DC158F440E0B70104
:1014F000823009F42FC16AE471E0C8010E94EE094C
:10150000F3C0843009F423C18530A9F7ED91FC9133
:10151000438150E0BF016C5F7F4F25C18E3009F4DD
:1015200043C0E0F48A3009F448C18C3021F7CD90F3
:10153000DD90ED90FC90B701A601F7FE0BC06DE2C7
:10154000C8010E94F70444275527BA014C195D09C8
:101550006E097F09C8010E94330508C1803209F471
:10156000CDC0803441F66BE5C8010E94F704F70155
:10157000F080FFEFFF1609F4BCC0D80114968D91DE
:101580009C916F2D45960E94DD047C01B8010E945C
:101590004E0AF701F580FFEFFF1609F4AAC06CE2CE
:1015A000C8010E94F704E5CFF701C080D180E28036
:1015B000F380A7019601C701B6010E94D41E8111D4
:1015C0009ACF20E030E0A901C701B6010E94D41EE5
:1015D000882379F0A7019601C701B6010E944A202D
:1015E0009B01AC01C701B6010E94D41E882309F4F7
:1015F00082CF20E030E0A901C701B6010E94D41ECD
:1016000087FF08C06DE2C8010E94F704F7FAF09462
:10161000F7F8F0945E01F7E1AF0EB11CB701A60137
:10162000C5010E94A600EF8CF8A0D9A04F89588D63
:10163000698D7A8DC8010E943305DD2091F16B8D93
:101640007C8D8D8D9E8D3E0121E1620E711CCD2C15
:1016500043012AE0222E312C412C512CCA94AFEFA9
:10166000CA1659F0A20191010E94FE20605DF301AB
:1016700062933F01B901CA01F1CF8D2D90E0BC0109
:1016800060957095F401E81BF90B31978EE2808329
:1016900044275527461B570B680D791DC8010E942A
:1016A0001E05E114F10401F165E6C8010E94F7048A
:1016B000F7FE07C06DE2C8010E94F704F194E194BF
:1016C000F108F5012AE030E0C701B9010E94EA20E3
:1016D000805D82937B01672BB9F7A5014E1B5F0BE1
:1016E000BF01C8010E941E05D80112968D919C91E0
:1016F00040C06DE5C8010E94F704F6CF6BE7C80152
:101700000E94F704F701F080EE24E394BB24B39425
:10171000FFEFFF16D1F0D80114968D919C916F2D9B
:1017200045960E94DD046C01B8010E944E0AF60144
:10173000F580FFEFFF1639F06AE3E11001C06CE2BB
:10174000C8010E94F704EB24E3CF6DE7D3CF6D917E
:101750007C9141E0CE0101960E94330A4B815C816D
:101760005F7769817A81C8010E94F809F801828156
:101770009381A1960FB6F894DEBF0FBECDBFDF9167
:10178000CF911F910F91FF90EF90DF90CF90BF907E
:10179000AF909F908F907F906F905F904F903F9011
:1017A0002F900895ED91FC91438150E0BF016C5F53
:1017B0007F4FC8010E941E05D9CF4D915D916D915B
:1017C0007C91C8CE8C916FE471E0811102C064E518
:1017D00071E0C8010E94EE09C9CFCF93DF9300D01A
:1017E00000D000D0CDB7DEB7DC01CB012FE932E06D
:1017F0003A8329831C821B82BE83AD83009771F0DC
:10180000BE016F5F7F4F0E944E0A26960FB6F89476
:10181000DEBF0FBECDBFDF91CF9108956AE471E0C6
:10182000CE0101960E94EE098B819C81EECFCF9371
:10183000DF9300D000D0CDB7DEB7FC0184818430C7
:1018400061F08530E1F040E0BF01823049F060E0B6
:1018500070E080E090E090680BC06081718141E0B1
:10186000CE0101960E94330A69817A818B819C8125
:101870000F900F900F900F90DF91CF91089580817E
:101880009181FC01238130E00496BC01C9019F775E
:101890009F77EECFBF92CF92DF92EF92FF920F939E
:1018A0001F93CF93DF93D62EC72E8A01452B09F4C1
:1018B00042C0E9016596FC016081CE010E94DD0411
:1018C000FF24FA94009711F0FC01F580EE24E394D4
:1018D000BB24B394009779F1EE20B1F00E94170C6D
:1018E0002D2D3C2D3F77AC015F772417350761F430
:1018F000D801E62FF72F200F311F2A173B0771F071
:101900009D9181919817C9F3EB246F2DCE010E9410
:10191000DD040097F9F2FC01F580DCCF6F2DCE01DC
:10192000DF91CF911F910F91FF90EF90DF90CF90BB
:10193000BF900C94DD0490E080E0DF91CF911F9187
:101940000F91FF90EF90DF90CF90BF900895FC0132
:1019500024813581232B39F421E0FB018081882308
:1019600049F020E007C0808191810E94182321E086
:10197000892BB9F7822F08950F931F93CF93DF938D
:10198000EC0188819981009759F02A813B812617C3
:10199000370730F081E0DF91CF911F910F910895CB
:1019A0008B016F5F7F4F0E944B22009759F0998304
:1019B00088831B830A832C813D81232B59F7FC01EB
:1019C0001082E8CF80E0E7CFEF92FF920F931F9352
:1019D000CF93DF936115710541F480E0DF91CF91E2
:1019E0001F910F91FF90EF90089541155105B1F0AF
:1019F0007B01EC010C811D81040F151FB8010E94B1
:101A0000BC0C882351F3288139818C819D81B701D9
:101A1000820F931F0E9421231D830C8381E0DECF60
:101A2000CF93DF93EC01FB0144815581608171818B
:101A30000E94E40C811103C0CE010E949E09CE01D8
:101A4000DF91CF910895CF93DF93EC01EAA1FBA141
:101A5000E80FF91F1282BC016E5F7F4F81F0FB011E
:101A600001900020E9F73197AF01461B570B8881A1
:101A700099810E94E40C882311F01BA21AA28AA16A
:101A80009BA1DF91CF9108951F93CF93DF93EC013A
:101A9000162F8AA19BA101968097B8F48AA19BA1D9
:101AA0009C012F5F3F4F3BA32AA38C0F9D1FFC017E
:101AB000128321E030E08CA19DA1820F931F9DA392
:101AC0008CA3DF91CF911F910895CE010E94230D29
:101AD000892B21F330E020E0EECFBF92CF92DF924E
:101AE000EF92FF920F931F93CF93DF93EC016A0164
:101AF0008B017B01E40EF51EE016F106D1F0F80132
:101B0000B1908F018AA19BA10196809760F48AA170
:101B10009BA19C012F5F3F4F3BA32AA38C0F9D1FCE
:101B2000FC01B282E9CFCE010E94230D892B79F30B
:101B3000E3CF4CA15DA14C0D5D1D5DA34CA3DF91D6
:101B4000CF911F910F91FF90EF90DF90CF90BF90BA
:101B500008958F929F92AF92BF92CF92DF92EF92B1
:101B6000FF920F931F93CF93DF93CDB7DEB76697A6
:101B70000FB6F894DEBF0FBECDBF6C018E01095EBB
:101B80001F4F78018AE0882E912CA12CB12CCB011B
:101B9000BA01A50194010E94FE20942F852F605D5B
:101BA000F80162938F01A901692F782F4115510522
:101BB0006105710561F7A7014E1B5F0BBF01C601EF
:101BC0000E946D0D66960FB6F894DEBF0FBECDBFB6
:101BD000DF91CF911F910F91FF90EF90DF90CF9009
:101BE000BF90AF909F908F900895FB0101900020CF
:101BF000E9F73197AF01461B570B0C946D0DCF924F
:101C0000DF92EF92FF920F931F93CF93DF938C019C
:101C10006B017A0162E20E94440DE601EC0CFD1CAE
:101C2000EC16FD0699F06991EDE2F1E0D480DD203B
:101C3000C9F0329683816813F9CF6CE5C8010E9420
:101C4000440D6D2DC8010E94440DEACF62E2C80127
:101C5000DF91CF911F910F91FF90EF90DF90CF9088
:101C60000C94440D6111EECF63E471E0C8010E9451
:101C7000F50DD6CF2F923F924F925F926F927F9247
:101C80008F929F92AF92BF92CF92DF92EF92FF928C
:101C90000F931F93CF93DF93CDB7DEB7A1970FB606
:101CA000F894DEBF0FBECDBF7C018B01DC01149622
:101CB0008C911497863009F471C1E0F4833009F4F3
:101CC0005DC158F440E0B701823009F42FC16AE4E5
:101CD00071E0C8010E94F50DF3C0843009F423C1FE
:101CE0008530A9F7ED91FC91438150E0BF016C5F15
:101CF0007F4F25C18E3009F443C0E0F48A3009F4E7
:101D000048C18C3021F7CD90DD90ED90FC90B7016B
:101D1000A601F7FE0BC06DE2C8010E94440D4427E6
:101D20005527BA014C195D096E097F09C8010E9447
:101D3000A90D08C1803209F4CDC0803441F66BE5AD
:101D4000C8010E94440DF701F080FFEFFF1609F46F
:101D5000BCC0D80196968D919C916F2D45960E949E
:101D6000DD047C01B8010E943A0EF701F580FFEF17
:101D7000FF1609F4AAC06CE2C8010E94440DE5CF29
:101D8000F701C080D180E280F380A7019601C701EE
:101D9000B6010E94D41E81119ACF20E030E0A90143
:101DA000C701B6010E94D41E882379F0A7019601CD
:101DB000C701B6010E944A209B01AC01C701B601D0
:101DC0000E94D41E882309F482CF20E030E0A901CC
:101DD000C701B6010E94D41E87FF08C06DE2C8018A
:101DE0000E94440DF7FAF094F7F8F0945E01F7E1E1
:101DF000AF0EB11CB701A601C5010E94A600EF8C71
:101E0000F8A0D9A04F89588D698D7A8DC8010E949C
:101E1000A90DDD2091F16B8D7C8D8D8D9E8D3E0108
:101E200021E1620E711CCD2C43012AE0222E312CBF
:101E3000412C512CCA94AFEFCA1659F0A20191015E
:101E40000E94FE20605DF30162933F01B901CA0167
:101E5000F1CF8D2D90E0BC0160957095F401E81BE9
:101E6000F90B31978EE2808344275527461B570B89
:101E7000680D791DC8010E946D0DE114F10401F196
:101E800065E6C8010E94440DF7FE07C06DE2C80177
:101E90000E94440DF194E194F108F5012AE030E04C
:101EA000C701B9010E94EA20805D82937B01672B04
:101EB000B9F7A5014E1B5F0BBF01C8010E946D0D54
:101EC000D80194968D919C9140C06DE5C8010E9407
:101ED000440DF6CF6BE7C8010E94440DF701F08076
:101EE000EE24E394BB24B394FFEFFF16D1F0D801A6
:101EF00096968D919C916F2D45960E94DD046C0104
:101F0000B8010E943A0EF601F580FFEFFF1639F096
:101F10006AE3E11001C06CE2C8010E94440DEB24A9
:101F2000E3CF6DE7D3CF6D917C9141E0CE01019677
:101F30000E94330A4B815C815F7769817A81C80195
:101F40000E94FF0DF80184A195A1A1960FB6F89407
:101F5000DEBF0FBECDBFDF91CF911F910F91FF90DC
:101F6000EF90DF90CF90BF90AF909F908F907F9039
:101F70006F905F904F903F902F900895ED91FC915E
:101F8000438150E0BF016C5F7F4FC8010E946D0D1F
:101F9000D9CF4D915D916D917C91C8CE8C916FE4BC
:101FA00071E0811102C064E571E0C8010E94F50D85
:101FB000C9CFEF92FF920F931F93CF93DF93EC0162
:101FC0007B018A01BA010E94BC0C81110BC0CE01B9
:101FD0000E949E09CE01DF91CF911F910F91FF903A
:101FE000EF9008951D830C83B701888199810E9429
:101FF0002123F0CFEF92FF920F931F93CF93DF93A4
:10200000CDB7DEB762970FB6F894DEBF0FBECDBF77
:102010008C01CB01F8011182108213821282158289
:1020200014824AE09E012F5F3F4F7901B9010E945F
:102030009F1EF70101900020E9F73197AF014E197B
:102040005F09B701C8010E94D90F62960FB6F894D4
:10205000DEBF0FBECDBFDF91CF911F910F91FF90DB
:10206000EF900895FC011182108213821282158272
:102070001482FB0101900020E9F73197AF01461B64
:10208000570B0C94D90FCB01BA010C944B221F9320
:10209000CF93DF9385ED8093BC00809123029091D4
:1020A0002402A0912502B09126020796A11DB11D20
:1020B00023E0B695A795979587952A95D1F7209116
:1020C000BC0024FD03C010926B0252C04091230259
:1020D000509124026091250270912602452B462BD7
:1020E000472B69F30097A105B10541F02AE22A9533
:1020F000F1F700C00197A109B109E1CF8091220257
:10210000C1E0C0932102882399F1D091B8001091C9
:10211000BA008091BC008A7B8093BC0060E082E1C1
:102120000E947A0260E083E10E947A0210926B02C0
:10213000C0936D0210926C0261E082E10E947A020B
:1021400061E083E10E947A028091B9008E7F8093E2
:10215000B9008091B9008D7F8093B90088E48093A5
:10216000B80085E48093BC001093BA00D093B80007
:10217000DF91CF911F910895BF92CF92DF92EF929E
:10218000FF920F931F93CF93DF93EC01198D1F3FA5
:1021900081F0612F45960E94DD04FC018081898FCA
:1021A000309709F477C014828FEF8583BF01812FA8
:1021B00076C06C0135E0C30ED11CE880F9808F89B0
:1021C000882341F0C6010E941606E62FF72F182F2C
:1021D000309749F71F89988D191324C0103109F4DD
:1021E00059C0110F6D897E89D701ED91FC91B4E042
:1021F0001B9FA0011124C616D70609F044C0019008
:10220000F081E02DBA01C7010995009709F442C099
:1022100020E1F601DC0101900D922A95E1F79E8BF9
:102220008D8B188F0D891E898F8921E0280F2F8BA8
:10223000E4E08E9FC0011124080F191F90E1B92E10
:10224000203111F48FE0B82EF6E0BF9EB0011124CA
:10225000D701ED91FC910190F081E02DC701099526
:10226000F80193838283892B09F4B12CD801BC92A5
:1022700011961C92012B71F0C6010E941606E62FE2
:10228000F72F182F8DCF0480F581E02DC701099518
:10229000009729F681E08A8360E070E08FEFDF919C
:1022A000CF911F910F91FF90EF90DF90CF90BF9053
:1022B00008954F925F926F927F928F929F92AF920A
:1022C000BF92CF92DF92EF92FF920F931F93CF9323
:1022D000DF93EC018B01D42E0E94CD057C01892B6C
:1022E00009F049C0CE010E947F05863609F48EC1EF
:1022F00044F5873229F08B3581F1823209F08DC1A6
:102300001D821C828A819B81892B81F4E880F9805F
:10231000F701608171818FE190E00E94E3080097EE
:1023200019F421E0F70122839B838A83CE010E9466
:10233000EB067C01892BF9F4B801CE010E94CA0793
:102340001AC0843709F448C18B3709F46CC08E3643
:1023500009F063C16AE471E046C180E4F801848356
:102360000115110519F08FEF80838183D11015C0FD
:10237000C5E0EC2EF12CC701DF91CF911F910F9199
:10238000FF90EF90DF90CF90BF90AF909F908F9095
:102390007F906F905F904F9008951C86CE010E94B1
:1023A000CD05009739F56DE5CE010E9499058111A3
:1023B000E2CFDA948D849E84C4010E94BC10C82EA2
:1023C0005B01672B21F4B4E0EB2EF12CD4CFF801A4
:1023D00061816F3F89F0C40145960E94DD04FC01D4
:1023E000C582F801C1824D2DB501CE010E9459115F
:1023F000009721F07C01BFCF8083F4CFCE010E94F3
:10240000CD050097B9F76DE5CE010E9499058111C0
:10241000B2CF6CE2CE010E9499058111CBCF83E04F
:10242000E82EF12CA8CF80E2F80184830115110574
:1024300019F08FEF80838183DD2009F499CF1C860A
:10244000CE010E94CD050097A9F66DE7CE010E944E
:102450009905811190CF77247394DA941D821C82A0
:102460008A819B81892B79F4E880F980F70160816A
:1024700071818FE190E00E94E308009711F4F70169
:1024800072829B838A83CE010E947F058732E9F0A6
:102490008232D9F0CE010E947F05F82E0E940C05F1
:1024A000882309F4BCCF1C866F2DCE010E94BD0687
:1024B000CE010E947F05F82E0E940C058111F3CFFA
:1024C0008A819B81892B41F47ECFCE010E94EB064D
:1024D0007C01892B09F04FCFCE010E94CD057C01F4
:1024E000892B09F048CF6AE3CE010E949905882321
:1024F00009F495CFEA81FB818C819D81E80FF91F5A
:1025000014826C817D817F772D853E858A819B81B8
:102510000496472F4F77FC2DF078CF2EC42AE894ED
:10252000C7F8AC017C2DC8010E944A0C7C018D8447
:102530009E84009709F04CC0C4010E94BC10582E24
:102540005B01672B09F43FCFC4010E94BC10682EC9
:10255000962FE92EF72EE114F10409F434CFF5019A
:102560006582F80161816F3F89F1C40145960E943F
:10257000DD04FC015582F8016182B501CE010E94A3
:10258000CA074D2DB701CE010E9459117C01892B3C
:1025900009F0F1CECE010E94CD057C01892B09F016
:1025A000EACE6DE7CE010E9499058111E4CE6CE27E
:1025B000CE010E949905882309F431CFCE010E94F3
:1025C000CD057C01892B09F449CFD5CE5082D4CFDB
:1025D000B4010E945C08D5CF86E0F801848381E0D5
:1025E00080836FE471E0CE01DF91CF911F910F9155
:1025F000FF90EF90DF90CF90BF90AF909F908F9023
:102600007F906F905F904F900C94AA0586E0F80140
:102610008483108264E571E0E6CFCE010E947F05DD
:102620005E01FFE0AF0EB11CD12C9A2CCB2C803375
:1026300074F08A3374F42FE3D21699F01C86D39485
:10264000F50181935F01CE010E947F05F0CF8B32AF
:1026500091F393ED980F923070F3982F9F7D9534FE
:1026600051F3FE01ED0DF11D17868F858B32E1F1DF
:102670006096DD24D3948D3219F0C92DDC2DD12C38
:10268000888190ED980F9A3018F08E3209F0C7CEFD
:1026900060E070E0CB01FE012191A0ED8A2E820E58
:1026A00039E0381518F16A3949E97407840749E1B6
:1026B000940730F5AAE0B0E09B01AC010E94F81F3E
:1026C000912CB12CA12C240135014094509460949C
:1026D0007094461657066806790690F0680D791DC5
:1026E0008A1D9B1DEF01D7CF6096C9CF211108C06D
:1026F000DD2059F161307105810550E89507A0F0A2
:10270000B12CEAE04E2E512C612C712C6115710513
:10271000F0E88F07910508F1A30192010E94FE20C5
:10272000CA01B901B394F2CF2CE0F80124839B01D4
:10273000AC0188279927DC01821B930BA40BB50BF6
:1027400080839183A283B38316CE2AE0F801248389
:1027500060837183828393830ECEDE01299130EDF5
:10276000320F3A3010F4B394F8CF2E32D9F4FD0181
:102770003196DF013196CC91C053CA3098F46C3C4D
:102780002CEC72072CE08207910598F7AAE0B0E0E4
:102790009B01AC010E94F81F6C0F711D811D911DE2
:1027A000BA94E7CF2C912F7DD0E0C0E0253409F01A
:1027B00052C011962C9111972D32B1F51296CC245E
:1027C000C394FD01D0E0C0E02B2D0B2C000C330B8B
:1027D0005AE0952EDF01A19040ED4A0D4A30B0F548
:1027E0009C9EA0019D9E500D1124CA2DAA0CDD0BAC
:1027F000E097C40FD51FAE01420F531F473251055A
:102800004CF3CC20C1F060E070E080E090E8D110A3
:1028100003C060E070E0CB012EE0F8012483608308
:10282000718382839383A7CD2B3219F01196C12C2B
:10283000C8CF1296FCCF60E070E080E89FEFD11027
:10284000EBCF60E070E080E89FE7E6CFCC2019F0A6
:10285000D195C195D1092C912111E1CDCB0DD11D7F
:10286000B7FCDA950E94D91E39EAA32E30E0B32EC8
:102870001C161D063CF0D195C195D10941E9A42E45
:1028800040E0B42EC12C209791F0C0FF0CC044E072
:10289000C49EF0011124EA0DFB1D2591359145914F
:1028A00054910E943A1FD595C795C394ECCFDD2073
:1028B00009F4B2CF9058B0CF6F927F928F929F92CF
:1028C000AF92BF92CF92DF92EF92FF920F931F933E
:1028D000CF93DF93EC014115510589F490E080E03E
:1028E000DF91CF911F910F91FF90EF90DF90CF90EC
:1028F000BF90AF909F908F907F906F9008958C8144
:1029000081111AC080E28C83209741F38FEF888376
:10291000898379014A015B01CE010E944A0C00972C
:10292000F9F6C7010E94BC10682E6B01672B49F4B1
:1029300010E000E0C801D4CF803281F6209749F73B
:10294000CDCFC7010E94BC10782E962F092F172FCC
:102950000115110569F39701B501A401C6010E9493
:102960000409882329F3F601758269816F3F41F0DC
:10297000C70145960E94DD04FC0165827982DACFA9
:102980006882FCCFAF92BF92CF92DF92EF92FF921C
:102990000F931F93CF93DF935C01DC010D911C918A
:1029A0001197E8016A9659F012964D915D916D91DB
:1029B0007C9115979801CE010E945C14EC01C12C0A
:1029C000D12C76018AE5C82E81E0D82E92E0E92E3E
:1029D000BF2DB078FB2E6894F7F8209751F0B8011E
:1029E000CE010E945C089801B701A601CE010E94A9
:1029F0000409D501ED91FC9180E0309719F08281B6
:102A000091E08927DF91CF911F910F91FF90EF9077
:102A1000DF90CF90BF90AF900895AF92BF92CF92CA
:102A2000DF92EF92FF920F931F93CF93DF935C019E
:102A3000DC010D911C911197E8016A9659F01296EC
:102A40004D915D916D917C9115979801CE010E94F9
:102A50005C14EC01C12CD12C76018DE5C82E81E0EF
:102A6000D82E94E0E92EBF2DB078FB2E6894F7F8AD
:102A7000209751F0B801CE010E945C089801B7017F
:102A8000A601CE010E940409D501ED91FC9180E0E0
:102A9000309719F0828191E08927DF91CF911F91C2
:102AA0000F91FF90EF90DF90CF90BF90AF9008957F
:102AB0001F920F920FB60F9211242F933F938F9373
:102AC0009F93AF93BF9380919B0290919C02A091A2
:102AD0009D02B0919E023091960223E0230F2D3784
:102AE00058F50196A11DB11D2093960280939B027B
:102AF00090939C02A0939D02B0939E0280919702B6
:102B000090919802A0919902B0919A020196A11D0C
:102B1000B11D8093970290939802A0939902B0936D
:102B20009A02BF91AF919F918F913F912F910F90FA
:102B30000FBE0F901F90189526E8230F0296A11D37
:102B4000B11DD2CF1F920F920FB60F9211242F9367
:102B50003F934F935F936F937F938F939F93AF9325
:102B6000BF93EF93FF938091920290919302A09173
:102B70009402B0919502892B8A2B8B2BC1F19091F5
:102B80009102809100008927809300008091920239
:102B900090919302A0919402B09195021816190693
:102BA0001A061B069CF48091920290919302A091C8
:102BB0009402B09195020197A109B1098093920204
:102BC00090939302A0939402B0939502FF91EF919A
:102BD000BF91AF919F918F917F916F915F914F9135
:102BE0003F912F910F900FBE0F901F9018958091DD
:102BF0000001E8E6F0E0E4919FEF90930001E130FE
:102C000051F030F0E23069F060E00E947A02DECFED
:102C100010926E00F9CF90916F009D7F90936F009E
:102C2000F3CF909170009D7F9093700091E090930E
:102C3000B0009091B100987F94609093B100109291
:102C4000B300E2CF1F920F920FB60F9211242F9371
:102C50003F934F935F936F937F938F939F93AF9324
:102C6000BF93EF93FF938FE992E00E94FA03FF91E5
:102C7000EF91BF91AF919F918F917F916F915F91F4
:102C80004F913F912F910F900FBE0F901F9018956D
:102C90001F920F920FB60F9211242F938F939F9331
:102CA000EF93FF93E091AF02F091B0028081E09149
:102CB000B502F091B60282FD1BC090818091B802EE
:102CC0008F5F8F732091B902821741F0E091B802B3
:102CD000F0E0E156FD4F958F8093B802FF91EF91A0
:102CE0009F918F912F910F900FBE0F901F9018956D
:102CF0008081F4CF1F920F920FB60F9211242F9361
:102D00003F934F935F936F937F938F939F93AF9373
:102D1000BF93EF93FF938091B900887F803609F4C9
:102D20004AC0F0F5883209F4A5C018F5803109F4DD
:102D300099C0B8F4882309F4F5C0883009F492C02A
:102D4000FF91EF91BF91AF919F918F917F916F9183
:102D50005F914F913F912F910F900FBE0F901F9059
:102D60001895883109F486C0803251F780936A0241
:102D700014C0803409F49BC040F48033B9F3883325
:102D8000F9F680936A0285ECAEC0803509F483C001
:102D9000883509F494C0883499F60E944710D0CF42
:102DA000883909F48AC038F5883729F050F4883614
:102DB00011F0803729F683E080936B02109269024C
:102DC00055C0883809F479C0803919F0803809F085
:102DD000B7CF80916902803208F06FC0E09169023C
:102DE00081E08E0F809369028091BB00F0E0E75B89
:102DF000FD4F80833BC0803B39F0D0F4803A09F42A
:102E000077C0883A09F09CCF84E080936B021092DF
:102E1000480210924702F0E0E0E0099580914702F5
:102E200081110FC081E0809347021092270209C0F0
:102E3000803C09F4A8CF883C09F4A5CF883B09F071
:102E40007FCFE091480281E08E0F80934802F0E04E
:102E5000E95DFD4F80818093BB0090914802809195
:102E6000470229C0809190028093BB0085EC80933B
:102E7000BC0066CF90918F0280918E02981758F512
:102E8000E0918F0281E08E0F80938F02F0E0E25993
:102E9000FD4F8081E9CFE0918F0281E08E0F80931A
:102EA0008F028091BB00F0E0E259FD4F808390914A
:102EB0008F0280918E029817C8F285E8D8CFE091F2
:102EC0008F0281E08E0F80938F028091BB00F0E033
:102ED000E259FD4F808380916D0281115ECF81E0C8
:102EE00080936C0284EA8093BC0010926B0228CF1E
:102EF00085EC8093BC0010926B0280916902803255
:102F000030F4E0916902F0E0E75BFD4F10826091E0
:102F1000690270E089E492E0F0E0E0E00995109247
:102F200069020ECF10926A0238CF0F931F93CF938E
:102F3000DF93EC01088119818B819C81009749F016
:102F4000FC01208131813C832B83B8010E9452080F
:102F5000F3CF68817981CE010596DF91CF911F91E2
:102F60000F910C9442068CE393E00E9495178CE538
:102F700093E00E94B00982E693E00E94951782E8F0
:102F800093E00E94B00980919103909192030E9476
:102F9000C22180918E0390918F0397FD03C060E062
:102FA0000C94A80208950F931F93CF93DF93109270
:102FB000A2021092A10288EE93E0A0E0B0E080931C
:102FC000A3029093A402A093A502B093A6028FE15E
:102FD00091E09093A00280939F0285EC90E0909303
:102FE000AC028093AB0284EC90E09093AE028093AD
:102FF000AD0280EC90E09093B0028093AF0281EC40
:1030000090E09093B2028093B10282EC90E09093B2
:10301000B4028093B30286EC90E09093B602809362
:10302000B5021092B8021092B9021092BA02109230
:10303000BB02109289031092900310929703109292
:1030400098031092990310929A0381E0809396035B
:10305000809393031092940392E09093950380934E
:1030600088038BE490E090938D0380938C030E94FF
:1030700026219093920380939103009709F479C0DD
:103080002BE4FC0111922A95E9F789E190E09093F5
:103090008B0380938A0388E090E090938F03809362
:1030A0008E0380918903882341F061E088E00E94CB
:1030B000A80260E088E00E947A02E7EEF0E0E49186
:1030C000F0E0EE0FFF1FEB52FF4F8591949190932C
:1030D0009C0380939B03E9ECF0E0E491E0939D0373
:1030E0006FE371E082E893E00E94321001E011E0AA
:1030F00010936303009362031092640310926603BB
:103100001092650387E693E09093780380937703AA
:1031100010927903D4E0D0937A03CFEFC0937B036E
:1031200010928003C09381036FE371E08CE593E01C
:103130000E94321010933D0300933C0310923E0313
:103140001092400310923F0381E493E09093520366
:103150008093510310925303D0935403C0935503AB
:1031600010925A03C0935B03DF91CF911F910F918F
:10317000089510928D0310928C0310928B0310927D
:103180008A0389CFCF93DF93CDB7DEB7CF5FD10965
:103190000FB6F894DEBF0FBECDBF789484B58260C1
:1031A00084BD84B5816084BD85B5826085BD85B5EB
:1031B000816085BD80916E00816080936E00109269
:1031C00081008091810082608093810080918100E4
:1031D0008160809381008091800081608093800075
:1031E0008091B10084608093B1008091B0008160D3
:1031F0008093B00080917A00846080937A008091FF
:103200007A00826080937A0080917A008160809356
:103210007A0080917A00806880937A001092C100D1
:10322000E091AF02F091B00282E08083E091AB02C6
:10323000F091AC021082E091AD02F091AE0280E11B
:1032400080831092B702E091B302F091B40286E05D
:103250008083E091B102F091B2028081806180832D
:10326000E091B102F091B202808188608083E091A8
:10327000B102F091B202808180688083E091B10256
:10328000F091B20280818F7D808382E691E00E947E
:10329000E20980918E0390918F0397FD2EC061E02B
:1032A0000E94A80260E080918E030E947A0281E071
:1032B0008093890360919003209191033091920350
:1032C000633021F16150E1F070E08FEF92E00E94F5
:1032D000EA20F90140918C0350918D03CF01821BAC
:1032E000930B8417950778F44081469FC001479F50
:1032F000900D112490833196EDCF10928903DACF8F
:1033000070E060E0E6CF83E08093900340918C030F
:1033100050918D0370E060E0809191039091920351
:103320000E9411238091910390919203892B09F4BB
:10333000C0C00E94E402009197031091980320916D
:10334000990330919A03601771078207930740F43D
:1033500060939703709398038093990390939A03D3
:1033600000919703109198032091990330919A034B
:10337000601B710B820B930B6C32714081059105C0
:10338000C0F2F89480918C0390918D03CA51DF4F65
:1033900099838883C65ED040E0919103F0919203B7
:1033A000DF0111968081C251DF4F8883CE5ED0400D
:1033B00090918803E0919B03F0919C0380919D0381
:1033C000992309F4BAC09081982BC351DF4F988399
:1033D000CD5ED040908180958923C451DF4F888392
:1033E000CC5ED040C451DF4F8881CC5ED040C75105
:1033F000DF4F8883C95ED04088E0C851DF4F8883A3
:10340000C85ED040C351DF4F4881CD5ED040C4512B
:10341000DF4F5881CC5ED040C251DF4F6881CE5E15
:10342000D040C851DF4F3881C85ED040C751DF4F10
:103430002881C95ED040CA51DF4F88819981C65E1C
:10344000D040408367FD242F3A952083252F39F003
:10345000661F00C000005083000000C0F2CF38E0BB
:103460006D9150830000019761F7F0939C03E09306
:103470009B03C251DF4F6883CE5ED040C851DF4FFF
:103480003883C85ED040C751DF4F2883C95ED04023
:10349000CA51DF4F99838883C65ED04078940E94DA
:1034A000E402609397037093980380939903909339
:1034B0009A0361E08DE00E94A80261E088E00E942A
:1034C000A80261E08AE00E94A80262E089E00E940E
:1034D000A80260E082E00E94A80260E08AE00E9408
:1034E0007A028E0100521F4F52E1252E52E0352EF6
:1034F0008FE992E00E94DA03892B09F46EC36FE32F
:1035000071E0CE0101960E9432100E948C0397FD5B
:1035100085C08A30910509F481C061968FAF6197AB
:1035200062961FAE629741E050E0BE01605B7F4F44
:10353000CE0101960E94E40CE8CF9081982BC351F4
:10354000DF4F9883CD5ED040908180958923C45110
:10355000DF4F8883CC5ED040C451DF4F8881CC5E82
:10356000D040C551DF4F8883CB5ED04088E0C65144
:10357000DF4F8883CA5ED040C351DF4F4881CD5EA4
:10358000D040C451DF4F5881CC5ED040C251DF4F94
:103590006881CE5ED040C651DF4F3881CA5ED040D0
:1035A000C551DF4F2881CB5ED040CA51DF4F8881A3
:1035B0009981C65ED040408367FD242F00C000C0C3
:1035C000208300C000C000C000C000C050830000C5
:1035D000252F3A9541F0661F000000C000C000C0D2
:1035E00000C000C0E8CF38E06D9100C0508300C03B
:1035F000019709F7F0939C03E0939B03C251DF4FBF
:103600006883CE5ED040C651DF4F3883CA5ED0405B
:10361000C551DF4F2883CB5ED0403ACF80918203E3
:1036200090918303009709F409C269817A81611539
:10363000710509F401C240918403509185032D81E5
:103640003E814217530708F4F7C10E9421238D8160
:103650009E8190938703809386031E821D82CE01F4
:1036600001960E94B009C0908203D0908303E0903D
:103670008603F0908703EC0CFD1C82E693E00E9429
:10368000C40882E693E0109280039A8389831C82A7
:103690001B821E821D821F82D986C886FB86EA860F
:1036A0001D869F878E874AE06CE773E0CE01019606
:1036B0000E9459117C01892B51F48C85882339F0A3
:1036C0008091800383FF03C043E0E42EF12C8B81C3
:1036D0009C81009731F0E981FA81608171810E94BB
:1036E0005208EF2809F079C280918003803209F4F2
:1036F000BCC190E080E024E8422E21E0522E38E068
:10370000632EE72DE0787E2E689477F8F12CE12C7B
:10371000009739F022E633E0B301A2010E944A0C7F
:103720007C016FE371E0C8010E943210E114F104E2
:1037300009F49EC1C7010E94170CFB01309709F4E0
:1037400097C101900020E9F73197AF01461B570B55
:10375000C8010E94D90F6DE871E0C8010E94A70C52
:10376000882309F4EEC18CE393E00E94C408109210
:103770005A0388E0E9E0F1E0DE01A05BBF4F019071
:103780000D928A95E1F7CE01805B9F4F5C019924F1
:103790009394F12CE12CF50181905F01682D8AE072
:1037A0000E947A0262E370E080E090E00E940903E8
:1037B00089E00E945102BC01CE0188569F4F0E94B1
:1037C000FA0FB701CE018C589F4F0E94FA0F64EB9D
:1037D00071E0CE0101960E943210BE016C587F4FFD
:1037E000CE0101960E94100D6C0143E050E06CEB9D
:1037F00071E00E94E40C811103C0C6010E949E0981
:10380000BE0168567F4FC6010E94100D0E94CF096D
:10381000CE0101960E94B009CE018C589F4F0E94A4
:10382000B009CE0188569F4F0E94B00989E00E94DE
:1038300051028816190679F080EC91E00E94BE09C9
:1038400019A280E38E0D88A3CE0180960E94BE0946
:103850000E94CB09912C62E370E080E090E00E942E
:103860000903FFEFEF1AFF0A28E0E216F10409F05E
:1038700092CF992009F420C282ED91E00E94E209E2
:103880008CE393E09A83898385EE91E09C838B831C
:1038900084E08D838E81807880688E83CE0101964E
:1038A0000E94C2148FE391E00E94E20981E0C151BD
:1038B000DF4F8883CF5ED040AA24AA94BA2CD12CA3
:1038C000C12C90E490937C0080917A008064809376
:1038D0007A0080917A0086FDFCCFE0907800F0902D
:1038E0007900B701CE0188569F4F0E94FA0FB601AA
:1038F000CE018C589F4F0E94FA0F6FEF71E0CE01FE
:1039000001960E943210BE016C587F4FCE01019685
:103910000E94100D4C0142E050E06DEB71E00E94FE
:10392000E40C811103C0C4010E949E09BE016856C7
:103930007F4FC4010E94100D0E94CF09CE01019655
:103940000E94B009CE018C589F4F0E94B009CE0151
:1039500088569F4F0E94B009C114D10409F4C3C115
:10396000EA18FB08F7FE03C0F194E194F108EBE0DC
:10397000EE16F1040CF0B9C165E070E080E090E073
:103980000E940903FFEFCF1ADF0A2AE0C216D10412
:1039900009F097CFC151DF4F8881CF5ED040882397
:1039A00009F4A9C194E6A916B1040CF0A4C18CE3F2
:1039B00093E09A8389838BE092E09C838B8386E0FB
:1039C0008D838E81807880688E83CE0101960E94DF
:1039D000C2148FE391E00E94E20982E00E9451024A
:1039E000892B09F09BC18CE393E09A8389833C8205
:1039F0002B8282E08D838E81807880688E83CE01D9
:103A000001960E94C214E6E5F3E0C450DF4FF9834B
:103A1000E883CC5FD0408CE393E0C250DF4F9983C2
:103A20008883CE5FD040C450DF4F688179818A811E
:103A30009B81CC5FD040CAC00E94C22189819A81FB
:103A400090938303809382038B819C819093850361
:103A5000809384038D819E81909387038093860356
:103A60001A8219821C821B82F8CD8CE793E043CE28
:103A7000C454DF4F19830883CC5BD040C252DF4F60
:103A800019821882CE5DD040C8010E949E0984E24E
:103A9000FE01E454FF4FDE01A856BF4F01900D9286
:103AA0008A95E1F784E2FE01E856FF4FDE01AC584B
:103AB000BF4F01900D928A95E1F784E2FE01EC5828
:103AC000FF4FDE01A05BBF4F01900D928A95E1F799
:103AD00084E2FE01E05BFF4FDE01119601900D9242
:103AE0008A95E1F71EA21DA2CE01805B9F4F0E9426
:103AF000230D82E693E098A78FA3CE018C589F4FA9
:103B00000E94230DE114F104A9F0BE016F5F7F4F05
:103B1000C7010E943A0ECE0101960E94230DCE01EC
:103B200088569F4F0E94230DCE0184549F4F0E94C0
:103B3000230D11CE6AE471E0CE0101960E94F50DCD
:103B4000EACF65E971E0C8010E94A70C811183C02A
:103B50006AE971E0C8010E94A70C81114BC06EE9AF
:103B600071E0C8010E94A70C8823A1F18CE393E0C7
:103B70000E94C40810925A038CE393E09A838983CD
:103B8000E2EAF1E0FC83EB8385E08D838E8180782F
:103B900080688E83CE0101960E94C21486E593E070
:103BA000C051DF4F99838883C05FD040ECE3F3E0DE
:103BB000CE50DF4FF983E883C25FD040C051DF4F62
:103BC000688179818A819B81C05FD0400E94ED0B22
:103BD0000E94CB09C8010E94B00980E090E0892BC7
:103BE00009F486CC0E94E603882309F47DCC0E9468
:103BF00000007ACC8CE393E00E94C40810925A0330
:103C00008CE393E09A83898388EA91E09C838B8399
:103C100085E08D838E81807880688E83CE010196C9
:103C20000E94C214E6E5F3E0CC50DF4FF983E8834D
:103C3000C45FD0408CE393E0CA50DF4F9983888300
:103C4000C65FD040CC50DF4F688179818A819B81EB
:103C5000C45FD040BBCF8CE393E00E94C4081092B5
:103C60005A038CE393E09A838983EEEAF1E0FC83C4
:103C7000EB8385E08D838E81807880688E83CE0192
:103C800001960E94C21486E593E0C850DF4F9983E5
:103C90008883C85FD040ECE3F3E0C650DF4FF98380
:103CA000E883CA5FD040C850DF4F688179818A813C
:103CB0009B81C85FD0408ACF8AEE91E00E94E209E2
:103CC0008CE393E09A83898385EE91E09C838B83D8
:103CD00084E08D838E81807880688E83CE0101960A
:103CE0000E940D15DFCD570147CEC151DF4F18821D
:103CF000CF5ED04041CE8CE393E09A8389838BE002
:103D000092E09C838B8386E08D838E8180788068AF
:103D10008E83CE0101960E940D155BCE8CE393E05D
:103D20009A8389833C822B8282E08D838E81807886
:103D300080688E83CE0101960E940D1564CEBB274C
:103D40004A3031F4992322F4BDE2909581959F4F3A
:103D50000C94AB1EBB27FB015527AA27880F991F80
:103D6000AA1FA41710F0A41B83955051B9F7A05DAA
:103D7000AA3308F0A95DA193009779F7B111B19327
:103D80001192CB010C94C41EDC01FC01672F7191D0
:103D90007723E1F7329704C07C916D937083629131
:103DA000AE17BF07C8F308950E94161F08F481E0FC
:103DB0000895E89409C097FB3EF49095809570951E
:103DC00061957F4F8F4F9F4F9923A9F0F92F96E967
:103DD000BB279395F695879577956795B795F111DC
:103DE000F8CFFAF4BB0F11F460FF1BC06F5F7F4F79
:103DF0008F4F9F4F16C0882311F096E911C077238B
:103E000021F09EE8872F762F05C0662371F096E893
:103E1000862F70E060E02AF09A95660F771F881F62
:103E2000DAF7880F9695879597F90895990F000806
:103E3000550FAA0BE0E8FEEF16161706E807F9077C
:103E4000C0F012161306E407F50798F0621B730B17
:103E5000840B950B39F40A2661F0232B242B252B98
:103E600021F408950A2609F4A140A6958FEF811D3B
:103E7000811D08950E944D1F0C94BE1F0E94B01F0B
:103E800038F00E94B71F20F0952311F00C94A71F63
:103E90000C94AD1F11240C94F21F0E94CF1F70F3DD
:103EA000959FC1F3950F50E0551F629FF001729FDF
:103EB000BB27F00DB11D639FAA27F00DB11DAA1FEE
:103EC000649F6627B00DA11D661F829F2227B00D3B
:103ED000A11D621F739FB00DA11D621F839FA00DC6
:103EE000611D221F749F3327A00D611D231F849F16
:103EF000600D211D822F762F6A2F11249F5750406D
:103F00009AF0F1F088234AF0EE0FFF1FBB1F661FE7
:103F1000771F881F91505040A9F79E3F510580F0B0
:103F20000C94A71F0C94F21F5F3FE4F3983ED4F368
:103F3000869577956795B795F795E7959F5FC1F754
:103F4000FE2B880F911D9695879597F9089597F9FF
:103F50009F6780E870E060E008959FEF80EC08952F
:103F600000240A9416161706180609060895002458
:103F70000A9412161306140605060895092E0394D2
:103F8000000C11F4882352F0BB0F40F4BF2B11F446
:103F900060FF04C06F5F7F4F8F4F9F4F089557FDA5
:103FA0009058440F551F59F05F3F71F04795880FA7
:103FB00097FB991F61F09F3F79F08795089512163E
:103FC00013061406551FF2CF4695F1DF08C01616EA
:103FD00017061806991FF1CF86957105610508949B
:103FE0000895E894BB2766277727CB0197F90895B2
:103FF0000E943A20A59F900DB49F900DA49F800D24
:10400000911D112408952F923F924F925F926F92CB
:104010007F928F929F92AF92BF92CF92DF92EF9258
:10402000FF920F931F93CF93DF93CDB7DEB7CA1BD9
:10403000DB0B0FB6F894DEBF0FBECDBF09942A8804
:10404000398848885F846E847D848C849B84AA84AC
:10405000B984C884DF80EE80FD800C811B81AA8139
:10406000B981CE0FD11D0FB6F894DEBF0FBECDBF04
:10407000ED010895A29FB001B39FC001A39F700DF1
:10408000811D1124911DB29F700D811D1124911D60
:1040900008955058BB27AA270E9461200C94BE1F88
:1040A0000E94B01F38F00E94B71F20F039F49F3FE4
:1040B00019F426F40C94AD1F0EF4E095E7FB0C9474
:1040C000A71FE92F0E94CF1F58F3BA176207730783
:1040D0008407950720F079F4A6F50C94F11F0EF4EF
:1040E000E0950B2EBA2FA02D0B01B90190010C0108
:1040F000CA01A0011124FF27591B99F0593F50F420
:10410000503E68F11A16F040A22F232F342F442777
:10411000585FF3CF469537952795A795F04053956F
:10412000C9F77EF41F16BA0B620B730B840BBAF03F
:104130009150A1F0FF0FBB1F661F771F881FC2F7AA
:104140000EC0BA0F621F731F841F48F487957795BE
:104150006795B795F7959E3F08F0B0CF9395880F78
:1041600008F09927EE0F9795879508950E94D71F1D
:1041700088F09F5798F0B92F9927B751B0F0E1F028
:10418000660F771F881F991F1AF0BA95C9F714C0D8
:10419000B13091F00E94F11FB1E008950C94F11F2D
:1041A000672F782F8827B85F39F0B93FCCF3869511
:1041B00077956795B395D9F73EF49095809570956E
:1041C00061957F4F8F4F9F4F08950E94161F08F4EF
:1041D0008FEF0895AA1BBB1B51E107C0AA1FBB1F8D
:1041E000A617B70710F0A61BB70B881F991F5A9583
:1041F000A9F780959095BC01CD010895A1E21A2EF2
:10420000AA1BBB1BFD010DC0AA1FBB1FEE1FFF1F7A
:10421000A217B307E407F50720F0A21BB30BE40BCA
:10422000F50B661F771F881F991F1A9469F7609511
:104230007095809590959B01AC01BD01CF010895CB
:10424000EE0FFF1F0590F491E02D09940F931F933B
:10425000CF93DF938230910510F482E090E0E091FB
:10426000A003F091A10330E020E0B0E0A0E030979F
:1042700099F42115310509F44AC0281B390B243063
:104280003105D8F58A819B816115710589F1FB01A2
:1042900093838283FE0111C0408151810281138189
:1042A00048175907E0F04817590799F4109761F03B
:1042B00012960C93129713961C933296CF01DF91AE
:1042C000CF911F910F9108950093A0031093A10324
:1042D000F4CF2115310551F04217530738F0A901E9
:1042E000DB019A01BD01DF01F801C1CFEF01F9CF78
:1042F0009093A1038093A003CDCFFE01E20FF31FA3
:10430000819391932250310939832883D7CF20910B
:104310009E0330919F03232B41F42091050130919E
:10432000060130939F0320939E0320910301309157
:1043300004012115310541F42DB73EB74091070125
:1043400050910801241B350BE0919E03F0919F03CF
:10435000E217F307A0F42E1B3F0B2817390778F05C
:10436000AC014E5F5F4F2417350748F04E0F5F1FBB
:1043700050939F0340939E03819391939FCFF0E0CE
:10438000E0E09CCFCF93DF930097E9F0FC013297F8
:1043900013821282A091A003B091A103ED0130E03D
:1043A00020E01097A1F420813181820F931F20918A
:1043B0009E0330919F032817390709F061C0F093DD
:1043C0009F03E0939E03DF91CF910895EA01CE17FA
:1043D000DF07E8F54A815B819E0141155105B1F780
:1043E000E901FB83EA8349915991C40FD51FEC176A
:1043F000FD0761F4808191810296840F951FE90188
:1044000099838883828193819B838A83F0E0E0E0B3
:1044100012968D919C9113970097B9F52D913C912F
:104420001197CD010296820F931F20919E03309128
:104430009F032817390739F6309751F51092A103D9
:104440001092A003B0939F03A0939E03BCCFD3838D
:10445000C28340815181840F951FC817D90761F429
:104460004E5F5F4F88819981480F591F5183408368
:104470008A819B81938382832115310509F0B0CF16
:10448000F093A103E093A0039ECFFD01DC01C0CF18
:1044900013821282D7CFB0E0A0E0E1E5F2E20C9403
:1044A00005208C01009751F4CB010E9426218C013C
:1044B000C801CDB7DEB7E0E10C942120FC01E60F86
:1044C000F71F9C0122503109E217F30708F49DC041
:1044D000D901CD91DC911197C617D70798F0C53057
:1044E000D10530F3CE0104978617970708F3C61B52
:1044F000D70B2297C193D1936D937C93CF010E94E8
:10450000C221D6CF5B01AC1ABD0A4C018C0E9D1E98
:10451000A091A003B091A103512C412CF12CE12CCE
:10452000109731F580919E0390919F03881599050E
:1045300009F05CC04616570608F058C08091030188
:1045400090910401009741F48DB79EB74091070107
:1045500050910801841B950BE817F90708F055C026
:10456000F0939F03E0939E03F90171836083A0CFD2
:104570008D919C91119712966C90129713967C9046
:104580001397A815B90559F56C0142E0C40ED11C6A
:10459000CA14DB0420F1AC014A195B09DA01129656
:1045A000159780F06282738251834083D9016D93A5
:1045B0007C93E114F10471F0D7011396FC93EE9310
:1045C000129776CF22968C0F9D1FF90191838083DD
:1045D000F301EFCFF093A103E093A00369CF481656
:1045E000590608F42C017D01D3019ACFCB010E941A
:1045F00026217C01009749F0AE01B8010E940823F2
:10460000C8010E94C221870153CF10E000E050CFC3
:10461000FB01DC0102C001900D9241505040D8F7DF
:104620000895DC0101C06D9341505040E0F70895BA
:10463000FB01DC018D91019080190110D9F3990BD8
:104640000895FB01DC0101900D920020E1F708952F
:1046500010E0CBE7D0E004C0FE010E9420212196AB
:10466000CC37D107C9F7F894FFCFFF15010000A29E
:10467000038000010001010000010000000000BBF8
:1046800009B8094310000000001C043C03690369D9
:1046900004DA037803CC032F2F272722225C5C62E5
:1046A00008660C6E0A720D7409000D0A005C753004
:1046B000303030006E756C6C007472756500666128
:1046C0006C7365004F4B004661696C0053657269FD
:1046D000616C20696E696369616C697A61646F20DD
:1046E000656E20443020792044312E2E2E004675F0
:1046F0006E6374696F6E0074657374416C6C006EE8
:10470000656F70006164630064696700436173658D
:104710003400436173653300436173653200566151
:104720006C6F72205B005D3A20004572726F7220E0
:10473000656E20C3AD6E64696365200053454355C3
:10474000454E43494120434F52524543544100672F
:1047500070696F0053454355454E43494120494ECA
:10476000434F525245435441004C65637475726126
:104770002041302000616E616C6F6700737700002C
:107E0000112484B714BE81FFF0D085E080938100F7
:107E100082E08093C00088E18093C10086E0809377
:107E2000C20080E18093C4008EE0C9D0259A86E02C
:107E300020E33CEF91E0309385002093840096BBD3
:107E4000B09BFECF1D9AA8958150A9F7CC24DD24C4
:107E500088248394B5E0AB2EA1E19A2EF3E0BF2EE7
:107E6000A2D0813461F49FD0082FAFD0023811F036
:107E7000013811F484E001C083E08DD089C08234E0
:107E800011F484E103C0853419F485E0A6D080C0E4
:107E9000853579F488D0E82EFF2485D0082F10E0AE
:107EA000102F00270E291F29000F111F8ED06801E7
:107EB0006FC0863521F484E090D080E0DECF843638
:107EC00009F040C070D06FD0082F6DD080E0C81688
:107ED00080E7D80618F4F601B7BEE895C0E0D1E017
:107EE00062D089930C17E1F7F0E0CF16F0E7DF06D8
:107EF00018F0F601B7BEE89568D007B600FCFDCFD4
:107F0000A601A0E0B1E02C9130E011968C91119780
:107F100090E0982F8827822B932B1296FA010C0160
:107F200087BEE89511244E5F5F4FF1E0A038BF0790
:107F300051F7F601A7BEE89507B600FCFDCF97BE46
:107F4000E89526C08437B1F42ED02DD0F82E2BD052
:107F50003CD0F601EF2C8F010F5F1F4F84911BD097
:107F6000EA94F801C1F70894C11CD11CFA94CF0C13
:107F7000D11C0EC0853739F428D08EE10CD085E9AC
:107F80000AD08FE07ACF813511F488E018D01DD067
:107F900080E101D065CF982F8091C00085FFFCCF94
:107FA0009093C60008958091C00087FFFCCF809118
:107FB000C00084FD01C0A8958091C6000895E0E648
:107FC000F0E098E1908380830895EDDF803219F02E
:107FD00088E0F5DFFFCF84E1DECF1F93182FE3DFCA
:107FE0001150E9F7F2DF1F91089580E0E8DFEE27F6
:047FF000FF270994CA
:027FFE00040479
:00000001FF
