:020000040800F2
:10000000000800203D350008E1070008E30700086C
:1000100000000000000000000000000000000000E0
:10002000000000000000000000000000E5070008DC
:100030000000000000000000E7070008E9070008D2
:100040008D3500088D3500088D3500088D35000888
:100050008D3500088D3500088D3500088D35000878
:1000600000000000F1070008F3070008000000008E
:100070008D3500088D3500088D3500080000000022
:100080008D3500088D350008000000008D35000812
:10009000000000008D3500088D350008F5070008C8
:1000A000000000008D350008000000008D350008BC
:1000B0008D35000800000000000000000000000076
:1000C0000448054B10B5834203D0044B002B00D0ED
:1000D000984710BDD8000020D80000200000000084
:1000E00006480749091A8B10C90FC91810B54910DD
:1000F00003D0044B002B00D0984710BDD80000203F
:10010000D80000200000000010B5074C2378002B19
:1001100009D1FFF7D5FF054B002B02D0044800E0C2
:1001200000BF0123237010BDD80000200000000094
:1001300090350008054B10B5002B03D00449054845
:1001400000E000BFFFF7CCFF10BDC046000000007C
:10015000DC0000209035000870B50D4B0D4D5E1B86
:10016000B610AB4205D0002408CD01349847A64212
:10017000FAD803F00DFA084B084D5E1BB610AB42DF
:1001800005D0002408CD01349847A642FAD870BDA6
:1001900098360008983600089C3600089836000803
:1001A000F0B50500830749D0541E002A45D003004E
:1001B0000326CAB202E00135013C3ED301332A7066
:1001C0003342F8D1032C30D9FF220A401502AD1872
:1001D0002A04AD180F2C34D92700103F3F093E01E7
:1001E000B4461E001A0010366644156055609560CE
:1001F000D56010329642F8D101373F01DB190F2745
:100200000C22274022403C00002A0ED03E1FB60898
:10021000B400A4461A001C1D644420C2A242FCD1B2
:1002200003240136B6009B193C40002C05D0C9B20E
:100230001C19197001339C42FBD1F0BD030014005E
:10024000C0E72700E2E7C04603B471464908400012
:100250004900095A49008E4403BC704700224308F4
:100260008B4274D303098B425FD3030A8B4244D37E
:10027000030B8B4228D3030C8B420DD3FF220902C0
:1002800012BA030C8B4202D31212090265D0030B7F
:100290008B4219D300E0090AC30B8B4201D3CB0375
:1002A000C01A5241830B8B4201D38B03C01A5241B7
:1002B000430B8B4201D34B03C01A5241030B8B42B9
:1002C00001D30B03C01A5241C30A8B4201D3CB02A4
:1002D000C01A5241830A8B4201D38B02C01A524189
:1002E000430A8B4201D34B02C01A5241030A8B428C
:1002F00001D30B02C01A5241CDD2C3098B4201D3A4
:10030000CB01C01A524183098B4201D38B01C01A21
:10031000524143098B4201D34B01C01A5241030998
:100320008B4201D30B01C01A5241C3088B4201D347
:10033000CB00C01A524183088B4201D38B00C01AF4
:10034000524143088B4201D34B00C01A5241411A1B
:1003500000D20146524110467047FFE701B5002028
:1003600000F0F0F802BDC0460029F7D076E77047EC
:1003700003460B437FD4002243088B4274D3030906
:100380008B425FD3030A8B4244D3030B8B4228D3A7
:10039000030C8B420DD3FF22090212BA030C8B42CD
:1003A00002D31212090265D0030B8B4219D300E06D
:1003B000090AC30B8B4201D3CB03C01A5241830BF2
:1003C0008B4201D38B03C01A5241430B8B4201D3A2
:1003D0004B03C01A5241030B8B4201D30B03C01ACB
:1003E0005241C30A8B4201D3CB02C01A5241830A45
:1003F0008B4201D38B02C01A5241430A8B4201D374
:100400004B02C01A5241030A8B4201D30B02C01A9D
:100410005241CDD2C3098B4201D3CB01C01A524104
:1004200083098B4201D38B01C01A524143098B428D
:1004300001D34B01C01A524103098B4201D30B0176
:10044000C01A5241C3088B4201D3CB00C01A52419B
:1004500083088B4201D38B00C01A524143088B4260
:1004600001D34B00C01A5241411A00D201465241F9
:10047000104670475DE0CA0F00D04942031000D318
:100480004042534000229C4603098B422DD3030A6D
:100490008B4212D3FC22890112BA030A8B420CD37D
:1004A000890192118B4208D3890192118B4204D3A6
:1004B00089013AD0921100E08909C3098B4201D326
:1004C000CB01C01A524183098B4201D38B01C01A60
:1004D000524143098B4201D34B01C01A52410309D7
:1004E0008B4201D30B01C01A5241C3088B4201D386
:1004F000CB00C01A524183088B4201D38B00C01A33
:100500005241D9D243088B4201D34B00C01A524109
:10051000411A00D20146634652415B10104601D396
:100520004042002B00D54942704763465B1000D320
:10053000404201B5002000F005F802BD0029F8D0C6
:1005400016E770477047C046F8B51F4B1B78002B65
:1005500035D00024052726001C4D280001F034FD6D
:1005600000280FD10221280001F072FD002806D1D9
:10057000280001F0CDFD013480B23618E4B2280025
:1005800001F048FD013F002FE6D1114D002C17D09E
:1005900021003000FFF762FE80B2C82200239200E3
:1005A000904203D30B4B98420CD803000A4A288090
:1005B00013800A4A138002F057FF094B1860F8BDF8
:1005C0002888EAE7074BF1E7F60000203C0100200D
:1005D00000010020B80B0000FC000020FE000020FD
:1005E000F8000020FF0F000030B501258BB00C2271
:1005F000002107A8FFF7D4FD0C22002102A8FFF775
:10060000CFFD8021244B49035A6BA0202A435A6313
:100610005A6BC0052A400092009A1A6C0A431A6469
:100620001B6C05950B400193019B032305A90693C1
:1006300001F0D2FA194C1A4BC222236080235B05C9
:1006400063600023FF322000A36025616376A376F8
:10065000E261E36001F026FC002800D0FEE7200004
:1006600001F0C8FD002800D0FEE70290049002A926
:100670002000039501F050FD002800D0FEE7094B53
:100680001880094B1D70094B1870094B1D70FFF73E
:100690005BFF0BB030BDC046001002403C010020A3
:1006A00000240140FC000020F5000020F4000020A0
:1006B000F600002010B5FFF747FF014B188810BD6A
:1006C000FE000020702310B558430849FFF750FE84
:1006D0000830031CC0B2772802D97723D8B210BDE6
:1006E000DAB2082AFAD20823F8E7C046FF0F000062
:1006F00001230F4A516B0B435363A023DB0518689A
:100700000C490840802189040143196059680A484E
:1007100001405960596A0948014059628023116CAF
:100720005B010B431364064B064A1A607047C046D0
:1007300000100240FFFFFFFCFFEFFFFFFFFFF0FF95
:10074000003001404CC30000F0B5082302256026AC
:100750007C27094CA2682A42FCD042B20749002AF1
:1007600007DA0F70013B4000DBB2C0B2002BF1D1C1
:10077000F0BD0E70F6E7C046003001400C3001407D
:1007800013B50024094B185D0134FFF7DDFF182C69
:10079000F8D10023962201939200019B934200D34B
:1007A00013BD019B01330193F7E7C046020100200E
:1007B00010B5182200210348FFF7F2FCFFF7E0FF15
:1007C00010BDC0460201002010B503244443034875
:1007D000201802704170837010BDC04602010020D5
:1007E0007047FEE77047704710B502F031FE10BD4C
:1007F0007047704710B5054C200002F035F9200015
:1008000002F04AFD200002F047FD10BD80010020EB
:1008100001210A4B82B01A6C0A431A641A6C0A400E
:1008200080210092009ADA6B49050A43DA63DB6B98
:100830000B400193019B02B07047C046001002407C
:1008400000B58DB01822002106A8FFF7A9FC1022E0
:10085000002101A8FFF7A4FC022380220593FE33A8
:1008600008930E4B12021B6805A8DB04DB0C134334
:100870000A9300F033FE002800D0FEE70723029021
:1008800003900490012101A8019300F041FF00288A
:1008900000D0FEE702F000FE0DB000BD100FFF1FFC
:1008A000FEE7000030B500240222802089B03D4BD5
:1008B0000594596B000111435963596B012511408F
:1008C00001910199196C014319641B6C03A9034040
:1008D0000293029B402334480393049206920795A7
:1008E00001F07AF9314B324A32491C605C609C61FC
:1008F000DC611C625C645C639C63DC631C6411806F
:1009000017229A62D962DC61DA69DA610822D96950
:100910000A436021DA61DA690A43DA61DA69DA6185
:1009200080221C62186A520002431A621A6A224824
:1009300002401A621A6A214802401A621A6A204862
:1009400002401A62F422FF32DA631868743AFF3AFE
:1009500002431A601A688A431A601A6850398A4337
:100960001A608022596C12020A43FF215A645A6CA1
:100970008A435A645A6C13490A405A645A692A4392
:100980005A611A682A431A60DC220F4B52001D700C
:100990000E4B1D700E4B1A800E4B873AFF3A1A8091
:1009A00009B030BD0010024000040050002C01408E
:1009B000C0000020E7030000FFFDFFFFFFFBFFFF7B
:1009C000FFF7FFFFFFF3FFFF1A0100201B010020CC
:1009D000C4000020C2000020F8B5FA23071CDB0089
:1009E000984234D91F1C0125214EBFB2336839000B
:1009F000AB4333601F48FFF7BBFC802304005B025E
:100A0000984229DA013CA0B21B4B013D18801B4BD8
:100A1000ADB21B88B5626421F0625843FFF7A8FCB1
:100A20008023F063326A5B00134333628023726C6D
:100A30001B0213437364012372691A4372613268A3
:100A40001A4332600E4A17800E4A1370F8BD83B203
:100A5000642BC8D26427C6E70B49FFF7FFFB0130C0
:100A600085B229002000FFF7F9FB013880B2CBE7FF
:100A7000002C014000366E01C0000020C2000020A2
:100A8000C40000201B010020FFFF00000021074BD5
:100A90000748D9631A6A02401A621A680330FF30A5
:100AA00082431A60034B19707047C046002C014006
:100AB000FFFEFFFF1B01002010B502F0D5FC034A2A
:100AC0001368C31A642B00D9106010BD2C010020DC
:100AD00010B5FFF76DFEFFF753FE00220D4B0E48D9
:100AE000DA63196A0140196219680330FF308143E3
:100AF00019600A48202101F011F90A2002F0BAFC1D
:100B0000BFF34F8F064B074ADA60BFF34F8FC046E3
:100B1000FDE7C046002C0140FFFEFFFF000400502F
:100B200000ED00E00400FA0510B50A4B1B78002B1D
:100B300001D100F015F8A0201021C00501F0E8F85F
:100B4000013842425041044B187002F08DFC034BB7
:100B5000186010BD30010020380100203401002051
:100B600030B51025012487B02A00002102A8FFF724
:100B700017FBA020094B01A95A6BC00522435A63F9
:100B80005B6B019523400093009B039401F024F8D4
:100B9000034B1C70FFF7C8FF07B030BD00100240C8
:100BA0003001002010B50400FFF7BEFF0F231C40EA
:100BB000034B1878002800D0F020204310BDC04619
:100BC0003801002010B5054C200001F0E4FC0A209B
:100BD00002F050FC200001F03FFC10BD800100201D
:100BE00070B588B0040000F057FE0021082206A866
:100BF000FFF7D6FA002301250B4E019301A902331A
:100C000003A803930496059500F07EFE002803D008
:100C100000F054FE08B070BD3100280002AA029412
:100C200000F052FFF4E7C046003C000870B588B001
:100C3000040000F031FE0021082206A8FFF7B0FAF8
:100C4000002301250A4E019301A9023303A803934F
:100C50000496059500F058FE002805D131002800C3
:100C600002AA029400F030FF00F028FE08B070BD28
:100C7000003E0008044B18880300083B6F2B00D986
:100C80000020C0B27047C046003E000870B588B072
:100C9000040000F001FE0021082206A8FFF780FAF8
:100CA000002301250A4E019301A9023303A80393EF
:100CB0000496059500F028FE002805D13100280093
:100CC00002AA029400F000FF00F0F8FD08B070BD29
:100CD000003F0008324B73B51D78324B1A68324B17
:100CE000110001921868314B01431B68194305D06C
:100CF0000240511C09D110005A1C06D12C4B1B6814
:100D000001932C4B18682C4B1B680100019A194366
:100D1000114305D00240511C09D110005A1C06D1C4
:100D200001AB019302F0A0FB244A254B5340019AEA
:100D30005040984224D058401323D8410400000C5E
:100D40006040030A70215840FFF70EFB492901D18A
:100D50001C4B5C40631E4226033312D91A4B2C00F5
:100D60001E7001231C401D4204D0FFF783FF0028A2
:100D700014D10400154B30001C70154B1E7076BD4D
:100D8000144C200C6040030A70215840FFF7ECFA25
:100D90000831CEB2512EE1D10E3EDFE70600E9E781
:100DA000003F0008000EFF1F040EFF1F080EFF1F6C
:100DB000000CFF1F040CFF1F080CFF1F8001002008
:100DC000785634125555AAAA1C0100201E01002095
:100DD0001D010020EFBEADDE0300083B10B504008E
:100DE0006F2B09D8FFF722FF0120FFF74FFF0122E9
:100DF000024B1A70024B1C7010BDC0461E01002031
:100E00001D01002010B50220FFF740FF0022034B18
:100E10001A70034A034B12781A7010BD1E0100208D
:100E20001C0100201D010020F0B58DB002F004FB74
:100E30000024FFF705FDFFF75BFCFFF7B9FCFFF7A8
:100E40009FFC0022E0B2642311000134FFF7BCFCD8
:100E5000082CF6D1FFF794FCFA20400002F00AFBC0
:100E6000FFF7A6FCFFF78CFCC82002F003FBFFF79E
:100E700031FFAB4B03901B78002B00D1ECE0A9486D
:100E8000FFF7AAFD642002F0F5FAC8208000FFF702
:100E9000A3FD642002F0EEFAA2482026FFF79CFD95
:100EA000642002F0E7FAFFF7F1FD80229E4C9203E6
:100EB000636B0C2133436363636B012533400593FC
:100EC000059BE36B07A81343E363E36B0B911340AC
:100ED00006930322069B12230100944808930A926A
:100EE0000795099500F078FE0C21122302270322B2
:100EF0008E480B9107A908930A920797099500F06D
:100F00006BFE0C22002109A8FFF74AF9636B8848A1
:100F10003B436363636B07A93B400493049B0796C1
:100F2000089500F059FE310000260022804800F0AC
:100F3000F5FEFFF7B7FCFFF713FEFFF755FB7D4B00
:100F40001E6002F091FA7C4B186002937B4B019378
:100F50001D70FFF72DFC9620C000FFF73DFD5020CF
:100F600002F088FAE1208000FFF736FD3C2002F015
:100F700081FA6C48FFF730FD462002F07BFAAF2083
:100F80008000FFF729FD322002F074FAE120C00052
:100F9000FFF722FD5A2002F06DFAFFF777FD1E20C1
:100FA00002F068FA9620C000FFF716FD3C2002F020
:100FB00061FAE1208000FFF70FFD3C2002F05AFAB1
:100FC000C8208000FFF708FD0022F0B29623110030
:100FD0000136FFF7F9FB082EF6D1FFF7D1FBFA2017
:100FE0000025400002F046FAFA20554B5549DD63D2
:100FF0001A6A80000A401A621A680331FF318A4374
:101000001A6002F037FAFFF7D3FBFFF7B9FB802332
:10101000E26A9B031343E362E36A4B4A4B48134083
:10102000E3624B4B856003604A4B05614360039B61
:1010300045615B00C36001F00FFAA84201D0FFF7E1
:101040002FFC002402F010FA434B1860434B1B782E
:10105000002B11D0FFF73CFDC8208000FFF7BCFC3F
:10106000642002F007FA2F48FFF7B6FC642002F074
:1010700001FAC820800010E7394B1B68002B0FD005
:10108000384AC31A93420BD90122019B1A70029B62
:10109000244A1B68C31A934206D9029B186003E0D6
:1010A000019B1B78002BF2D12F4B284F0393012279
:1010B00064233800039901F025FB061E05D0013496
:1010C0000A2CBFD1FFF77EFDBBE702F0CDF9244B20
:1010D000264D1860039A2B781078012B10D180B21E
:1010E000FFF77EFD3C202E70FFF75CFD2049087065
:1010F00064230122380001F069FA0028A1D0DEE75C
:101100000600022B36D10300083B0B226F2B02D8BE
:10111000FFF762FE0D22002310002B70E4E7C046AB
:101120001E010020DC0500000010024000140050E9
:1011300000040050C80000202C010020C600002040
:10114000002C0140FFFEFFFFFFFFDFFF80010020BA
:1011500000540040801A06002801002024010020CD
:1011600020010020102700007C0100201F0100202A
:101170007D0100203F2841D8FFF766F89E008900D6
:10118000A000B000C900D9008F00F3004B004B0055
:101190004B004B004B004B004B004B000301030185
:1011A000030103010301030103010301030103011F
:1011B0000301030103010301030103010D011101F7
:1011C0001301160119011C011F0125012701290125
:1011D0002B012D012F01340139013E014B004B0041
:1011E0004B004B004B004B004B004B004B004B00A7
:1011F000600075004B007A007E008200974DDA286F
:1012000000D10CE107D8D82800D1FAE0D92800D1C4
:1012100002E10B2615E0FE2800D111E1FF28F8D1EC
:101220000A20FFF7BFFC6423287001222900380040
:1012300001F0CCF9642002F01DF9FBE701233C2604
:101240002B703000FFF7AEFC844D64232870012220
:101250002900380001F0BAF9002800D1F1E608238E
:1012600001342B702CE77E4B7C491B880B703FE7C9
:1012700002232B700D26E4E7FFF7C4FD0E26E0E7FE
:10128000784B1B78002B00D1B9E00F26D9E701225B
:101290002021754800F042FDD3E701222021724849
:1012A00000F03CFD192002F0E5F8002220216E48F4
:1012B00000F034FD0626C4E70022E9E700250023FC
:1012C000E8B21A0080210135FFF77EFA082DF6D129
:1012D000FFF756FA0023019A1370B2E7FFF7ECFB11
:1012E00000250023E8B280221900FFF76DFA0135CE
:1012F000012002F0BFF8082DF3D1FFF7DDFBFFF767
:101300003FFA052002F0B6F8FFF7D6FB99E7FFF7A2
:10131000D3FB00250022E8B280231100FFF754FA26
:101320000135012002F0A6F8082DF3D1E5E7FFF71B
:10133000C3FB00250023E8B21A001900FFF744FAA6
:101340000135012002F096F8082DF3D1FFF7B4FB28
:10135000FFF716FA052002F08DF8FFF7ADFB012329
:10136000B9E702F081F8414B1B68C01A642805D820
:101370003F4B1B78002B01D0092662E7FFF7D4FB17
:10138000FAE7E12310389B0058430011643080B223
:10139000FFF722FB8EE7FFF779FB072651E7C8200E
:1013A000F6E7FA204000F3E7FA208000F0E7FA20A1
:1013B000C000EDE70620FF3001E093204000FFF77A
:1013C0000BFB0C263DE7A520F8E75E20F3E7C420E1
:1013D000F4E7DC20F2E7F720F0E7C8208000FFF711
:1013E000FBFA47E7FA208000FFF7F6FA46E7962077
:1013F000C000FFF7F1FA48E71E48FFF7EDFA0A26AA
:101400001FE7FFF757F90005000FFFF7CBFB642339
:101410000122290028706DE6FFF74CF9F7E7FFF786
:1014200049F90600FFF74EF90300083BDBB26F2BCA
:10143000EDD9802308201B019E42E8D36F30E6E7F8
:101440000F20FFF7AFFB642328700122290038002A
:1014500001F0BCF8052002F00DF8FBE57D0100204D
:10146000003C00081E010020000400503401002050
:1014700030010020DC05000030B587B001A90A006A
:10148000134B31CB31C211CB11C2124B38229C68A5
:101490002000104014420ED107241A685B68D20A5B
:1014A0005B0B22402340042B00D818008000085812
:1014B000D04007B030BD99681140082906D098681F
:1014C0001040183843425841C003F2E70248F0E7A1
:1014D000E43500080010024000366E01F8B5051E24
:1014E00001D10120F8BD0368DB0708D42B689B07F6
:1014F00058D42B681B0700D5C5E00020F2E738223E
:101500007B4CA3681340082B06D123689B03EDD5C1
:101510004368002BEAD1E4E74368002B2AD08168B6
:101520000029DED00C20226982430A4322618022F6
:101530005202934211D122681343236001F094FFB9
:1015400080270600BF0223683B42CFD101F08CFF09
:10155000801BC828F7D90320C4E7A021C9028B4209
:1015600008D180232168DB020B43236023681A43E0
:101570002260E3E722685F490A40226022685E49F0
:101580000A402260002BD9D101F06EFF80270600AF
:10159000BF0223683B42A9D001F066FF801BC82828
:1015A000F7D9D8E73823524CA2681A4235D12368BC
:1015B0005B0503D5EB68002B00D192E763686A698D
:1015C0001B0C1B041343636001F04EFF80270600D1
:1015D000FF0023683B421AD02368484A13402A6917
:1015E00013432360FFF748FFA36845491B051B0F02
:1015F0009B005B581F210B40D840424A424B106071
:10160000186801F0F1FE002800D172E769E701F0E7
:101610002BFF801B0228DCD99DE7EB68002B1FD035
:101620002368364A802713402A69FF00134323604A
:10163000802322685B001343236001F015FF06003E
:1016400023683B4206D063686A691B0C1B04134382
:1016500063604EE701F008FF801B0228F0D97AE7AB
:1016600023682A4A80271340236001F0FDFE06000C
:10167000FF0023683B4200D13BE701F0F5FE801BF1
:101680000228F6D967E73822194CA3681340182BB3
:1016900008D1236E9B0700D42FE7A8694342584125
:1016A000C0B21FE7AA690123002A10D0226E0226C9
:1016B0001343236601F0D8FE0500236E334200D0A9
:1016C0001BE701F0D1FE401B0228F6D943E7226E4A
:1016D00002269A43226601F0C7FE0500236E3342BC
:1016E00000D10AE701F0C0FE401B0228F6D932E71C
:1016F00000100240FFFFFEFFFFFFFBFFFFC7FFFFE1
:1017000058360008D4000020D0000020FFFEFFFF64
:10171000F7B504000E00002801D10120FEBD01270D
:10172000434D2B683B408B4228D32268930739D422
:10173000D20746D401272B683B40B34208D92B6817
:10174000BB432B6001F090FE06002B683B4260D14A
:101750002368384D5B0763D4FFF78EFEAB683649CC
:101760001B051B0F9B005B581F210B40D840334AC1
:10177000334B1060186801F037FECFE72B68BB438E
:101780000B432B6001F070FE01902B683B40B3428D
:10179000CBD001F069FE019BC01A2A4B9842F4D9C4
:1017A0000320BBE72349530704D5E0238868DB0106
:1017B00003438B608B6824480340A06803438B601D
:1017C000B6E762681B4F012A19D13B689B03A4D579
:1017D0000721BB688B431343BB6001F045FE0190BA
:1017E0003823BA681A406368DB009A42A2D001F03D
:1017F0003BFE019BC01A134B9842F1D9D0E7002A57
:1018000003D13B685B05E3D487E73B6E9B07DFD4DE
:1018100083E701F029FE0B4B801B984295D9BFE767
:10182000AB680A4A1340E2681343AB6094E7C046D2
:10183000002002400010024058360008D40000206A
:10184000D000002088130000FFF0FFFFFF8FFFFF94
:10185000064B07499B68074A5B045B0F9B005B587C
:101860001F2110680B40D8407047C046001002404E
:1018700038360008D40000200022054B5A600223AD
:10188000044A51690B435361FF2303607047C0460C
:10189000C8010020002002400020054B5A69824206
:1018A00005DA044A9A60044A9A605869C00F704782
:1018B0000020024023016745AB89EFCD8022044B15
:1018C000120659690A435A615869C043C00F7047EC
:1018D0000020024070B50400802501F0C5FD6D02B6
:1018E0000419074B1A69100028402A4205D001F05C
:1018F000BBFDA042F5D3032001E0024A1A6170BD8E
:101900000020024011800000F7B5684B04000193ED
:101910001B780F000220012B66D00123019A644935
:101920001370644B5A68644B1204520F8240525831
:101930005D681168FD300E000640B5422AD19D68F1
:10194000AC46CD01ED0DAC4524D15D69090A0140DD
:101950008D421FD15168DD68084085421AD118694F
:101960004901490D884215D191689869C903C90B8D
:1019700088420FD1D168D869C903C90B884209D1FF
:1019800011691D6A88B2854204D1586A8900890CA0
:1019900088421CD05E601168C901C90D99605178F8
:1019A00059615168C9B2D96051684901490D19613D
:1019B0009168C903C90B9961D168C903C90BD96181
:1019C000116989B2196212699200920C5A622668F2
:1019D000012E1DD1FA208000FFF77CFF002804D0E3
:1019E00001200023019A1370FEBD0425019B334C96
:1019F00058606369FA202B4363618023304A1B05DA
:101A00001A608000FFF766FF6369AB436361E8E734
:101A1000022E21D1FA208000FFF75CFF0028DFD1E1
:101A200001235B423B6065680130A3686268DB01AB
:101A30009B18AB42D5D92800FFF71EFFFA20800083
:101A4000FFF748FF1D4A5369B3435361002801D093
:101A50003D60C6E78035E8E7032EC1D1FA2080005B
:101A6000FFF738FF0028BBD101235B423B60E568EC
:101A700001302369E2681B039B18AB42B1D9802275
:101A80000E4E12017369FA2013437361FF23800025
:101A90002B60FFF71FFF73690A4A13407361002828
:101AA000D6D180235B01ED18E3E7C046C8010020D2
:101AB000F835000800100240FC20024000200240DF
:101AC00021433412FFF7FFFFF7B53E4D0C002B7892
:101AD00002200192012B64D001232B703A4B3B4929
:101AE0005A683B4B1204520F824052585E6811688C
:101AF000FD300F000740BE422AD19E68B446CE0199
:101B0000F60DB44524D15E69090A01408E421FD109
:101B10005168DE68084086421AD118694901490DAA
:101B2000884215D191689869C903C90B88420FD1C1
:101B3000D168D869C903C90B884209D111691E6AE5
:101B400088B2864204D1586A8900890C88421CD028
:101B50005F601168C901C90D996051785961516878
:101B6000C9B2D96051684901490D19619168C90329
:101B7000C90B9961D168C903C90BD961116989B2CF
:101B8000196212699200920C5A620120630608D110
:101B9000FA208000FFF79EFE061E03D000233000CF
:101BA0002B70FEBD0199200001F0FEFCFA208000A0
:101BB000FFF790FE0121074A53698B4353610028C8
:101BC000ECD0EEE7C801002000100240F835000814
:101BD000FC20024000200240494AF0B58218541E01
:101BE000A241002385B0013201910392019A12684B
:101BF0001400DC4001D105B0F0BD01249C40A44696
:101C00006146144000940A4277D0019A1024526829
:101C10001500A5430295022D0ED107250F261D4064
:101C2000AD00AE40DC08A4000419276A0199B7434F
:101C30000E69AE403E432662032426005D00AE409E
:101C40001440AC400168F743B1430C430460029C6C
:101C5000013C012C0DD801998668CC683E40AC400F
:101C600034438460614614099C4046688E43344383
:101C700044600199C6688C683E40AC403443C460FF
:101C8000D4003AD503260F241E40F600B4401D4967
:101C90009D08AD006D182F6EA743A024E405041B1A
:101CA000611E8C41039964420C40B44000993C434E
:101CB0000E002C66144CCD43E76F3E43D10301D494
:101CC0003E002E40E667114E009FF46F27439103BC
:101CD00001D42C4027000B4CF7672768009E3E4339
:101CE000D10201D43E002E4026606668009F374333
:101CF000920201D42E4037006760013376E7C04678
:101D000000FCFFAF0018024004180240081802400F
:101D100000690840431E9841C0B27047002A01D0B4
:101D2000816170478162FCE710B5841CE37F022B60
:101D300003D004238363012010BD0E2102681368C1
:101D40008B43136001231168994311600B498A4248
:101D500003D00B4B9A420DD110230A4A5360012342
:101D60000022E377C318DA77436B934200D0984799
:101D70000020E1E780235B00EFE7C0460800024057
:101D80001C000240000002400230C07FC0B2704719
:101D90000422036870B599680400114201D1002043
:101DA00070BD9968114206D09A68D20703D51022F7
:101DB00099680A439A6001F057FB042605002368DE
:101DC0009B683342EBD001F04FFB401B0228F6D951
:101DD00010230120A26B1343A363E36B0343E3636C
:101DE000DEE70122036870B599680400114201D151
:101DF000002070BD05219D680D40012D18D19A6805
:101E0000AA439A6002221A6001F02EFB06002368A2
:101E10009B682B42ECD001F027FB801B0228F6D9EF
:101E20001023A26B1343A363E36B2B43E36306E02E
:101E30001023816B0B438363C36B1A43C26301207E
:101E4000D7E70000002213B50300019202680120C9
:101E50009168014201D0002016BD94680D490C42E2
:101E600007D01022996B0A439A63DA6B0243DA6354
:101E7000F2E7936808491843084B90601868FEF72A
:101E8000EDF90190019B002BE5D0019B013B0193F3
:101E9000F8E7C0461500008040420F00D400002043
:101EA0007047000070B5041E00D17FE0836B002BEB
:101EB00005D102003432C3631370FFF7F1FFA36B47
:101EC000DB0600D574E0226893685B0700D56FE0FD
:101ED000A16B3A4B19400633FF330B43A36393685E
:101EE000DB070BD41821D3688B43A1680B43D36065
:101EF000136961681B011B090B431361D3683049E7
:101F00000B40D360617E237E48039B030343E0685C
:101F10000343601DC07F40000343A06A0138451E93
:101F2000A84100030343206902384542684180000C
:101F30000343A07E012804D1002925D18021490234
:101F40000B43C220E169FF30814202D0206A014385
:101F50000B43D1681943D160E16A072906D80725E8
:101F60005069A8435061506901435161D2681549D5
:101F70000A409A4210D100200323E063A26B9A43E7
:101F8000023B1343A36370BD2021A56B2943A163CA
:101F9000E16B0843E063D4E71223A26B9A43023B50
:101FA0001343A3630123E26B1343E3630120EAE7D6
:101FB0001023A26B1343A363F8E7C046FDFEFFFFA7
:101FC00019C2FEFFE7FF3FC3F8B504260568040009
:101FD000AB680220334219D1270034373B78012BFC
:101FE00014D0012320003B70FFF72CFF00280DD1F7
:101FF000A26B074B1A4080235B001343A3631C238F
:10200000E06338702B60AB681E43AE60F8BDC0461D
:10201000FEF0FFFF70B5060034363378040002206E
:10202000012B12D0012520003570FFF7B1FE0028EA
:1020300009D12000FFF7D5FE002804D1A36B034A85
:1020400013401D43A5630023337070BDFEFEFFFFE8
:10205000F8B5466904000D00082E0DD00368012074
:10206000DB680C26034207D02023A26B34341343D1
:10207000636000232370F8BD01F0F6F907002368C0
:102080001A68164222D08022A16B92000A43A263F2
:10209000C022D9681201114213D1627E002A10D1E8
:1020A0001A6812070DD59A68520722D40C215A6873
:1020B0008A435A60A16B154A11400432FF320A4329
:1020C000A263227E002A1DD00020D4E76A1CD7D04C
:1020D000002D08D10423A26B343413436360002322
:1020E00003202370C7E701F0BFF9C01BA842C6D97F
:1020F000F0E72022A16B0A43A2630122E16B0A43AD
:10210000E263DEE70C221A60DEE7C046FEFEFFFF58
:102110000368186C70470000F7B5002304000193B2
:102120003434237806000220012B26D00138207099
:102130003568AB685B074ED40A684F681300BC462D
:10214000274F90400B3BBC4536D0AF6A3843A8625E
:10215000F06A07280CD907206E6989680640B142E9
:1021600006D06E69014086436E616E6931436961D4
:10217000012B03D9002000232370FEBD13000B3B6D
:102180005D1EAB41802517495B429B0D08689B058E
:102190002D045B1903430B600B2AEBD1124B13493F
:1021A0001868FEF75BF80A2343430193019B002B59
:1021B000E0D0019B013BF8E7AA6A8243AA62012BA7
:1021C000D8D8581E8341074A094811689B051B1837
:1021D0000B401360CEE72023B26B1343B363CAE70F
:1021E0000110000008270140D400002040420F00E9
:1021F000FFFF7FFFF8B5050034352B78040002207F
:10220000012B38D00138287023689A68024233D1F4
:10221000A16B1C4A11400632FF320A430321A2631C
:10222000DE68DA688A43DA608022996812060A4317
:102230009A6001F019F9070023689A68002A0CDBFC
:102240000321DA680E40164302220020DE60A36BF1
:102250009343A36300232B700DE001F005F9C01B2D
:102260000228E9D91223A26B01209A43023B1343AF
:10227000A36300232B70F8BD2023A26B1343A36339
:10228000E8E7C046FDFEFFFF10B5FF2403220B0068
:1022900021000240D20091409B012340C94393405A
:1022A00000280ADBC0240B4A800880008018A400A4
:1022B00002590A401343035110BD0F221040083841
:1022C000054A800880008018C26911401943C16125
:1022D000F2E7C04600E100E000ED00E08022431E8E
:1022E0005204012093420DD2C021074A074853608F
:1022F000036A09061B021B0A0B4303620020072323
:10230000906013607047C04610E000E000ED00E010
:10231000026803005169002049050ED50749516143
:102320001A00202131325862117050700422596B0A
:1023300030330A435A60187001307047FFFBFFFFCB
:10234000F7B504000D001E0001920F0C2268012F4A
:1023500022D15369290099438BB259424B410199CB
:10236000994201D0002016E0731CF0D001F07CF8F7
:10237000089BC01AB04201D8002EE7D121000022EC
:1023800020230120313162620B704A70616B30345E
:102390000B4363602270FEBD9369DBE7F8B5040070
:1023A0000D001600802723685B693B4201D00020A6
:1023B00018E02000FFF7ACFF002812D16B1CF2D010
:1023C00001F052F8801BA8420DD9210000222023E1
:1023D000313162620B704A70616B30340B43636061
:1023E00022700120F8BD002DDDD1EEE7F7B5040025
:1023F0000D0040261027019223685A6911003140D0
:10240000324201D0002011E05A693A420FD0112225
:1024100052425A6123003132313361621A7059706D
:10242000636B63630023012030342370FEBD01F031
:102430001BF8019BC01AA84209D9220000212023C1
:102440003132616213705170626B1343E9E7002D02
:10245000D2D1F2E770470000F7B5041E01D1012088
:10246000FEBD0300313300931B78DAB2002B04D198
:10247000030030331A70FFF7EDFF24230121009A87
:102480001370226813688B431360FFF7E1F96768E4
:102490003A4A06000023974249D8394AB2425B4182
:1024A000DBB2002BDBD130003649FDF7D7FE3F22EF
:1024B00025686B68934303436B602B6A93430193D6
:1024C0002E4B9F4235D8019B013003432B62EA69B2
:1024D0002D4B701E1A40294B01929F4231D8790032
:1024E000FDF7BCFE294A01300423104201D000054B
:1024F000030D019A61691A432369EA610B43C02104
:102500002A6800208A431343FE222B60AB68934362
:10251000E2681343AB6001232A6813432B60202336
:10252000009A6063137060623234207098E7184A32
:10253000B4E79623FA215B0058438900FDF78EFE2D
:10254000C1E7A368002B0DD103217943FDF786FE77
:10255000013000050123020D0028CAD080231B0290
:102560001343C6E719217943FDF778FE01300005D2
:102570000123020D0028BCD0C023F0E7A086010093
:102580007F841E0040420F000030FFFFFC0F000060
:10259000FF083D00704770B504000120002C13D0E7
:1025A0002500242331352B70226813688343136080
:1025B0002000FFF7EFFF0020230060633233287014
:1025C000606230341870207070BD0000F0B50400F7
:1025D00087B00F001D00039200F046FF210031314B
:1025E0000B7806000220202B02D1002F02D10120FF
:1025F00007B0F0BD039B002BF9D0230030331A78CD
:102600000220012AF4D001221A70236818681042AF
:1026100002D1186802431A601A68364802401A60EC
:1026200021220A70220020213232117000220399E7
:102630006263E183E18BA761A1832F49216280213D
:102640001868C9000143196020002B002B4900962F
:10265000FFF776FE0028CAD1236805905A690592D3
:102660009B690593059BA28B002A16D182212B0022
:10267000200000964902FFF763FE0028B7D12368C7
:102680001F4959611A680A401A6023002022313319
:1026900030341A7058702070AAE7290032002000E8
:1026A000FFF77CFE2168002804D00B68144A134011
:1026B0000B609CE7A3691A780A615A1CA261E28B3D
:1026C000013A92B2E283A28B4F69501E0392042218
:1026D00080B2A0831742C6D00028C4D058780233F5
:1026E0000861A361E38B039A013B9BB2023AE38347
:1026F000A283B8E7FFF7FFFF0000FFFF0200010021
:10270000FFFBFFFFF0B5040087B01E0002910392AB
:1027100000F0AAFE210031310B7807000225202BA2
:1027200003D1029B002B03D10125280007B0F0BD87
:10273000039B002BF8D0230030331A780225012A9E
:10274000F3D001221A7023681868104202D1186869
:1027500002431A601A684A4802401A6022220A702C
:102760002200202132321170002202996263A1619D
:102770000399E183E18BA18342492162802118689A
:10278000C90001431960200033003F490097FFF75B
:10279000D7FD051EC8D1236804905A6904929B692D
:1027A0000493049BA38B002B19D1102123685A6931
:1027B0000A4245D000220592596905910121186805
:1027C00001431960059931481968014019602300D7
:1027D00020213133303419705A702270A5E73A0045
:1027E00031002000FFF702FE2368002804D01A6899
:1027F00026490A401A6097E71A69A3691A70A16905
:10280000E28B4B1CA361A38B013A013B9BB29C461C
:10281000A383042392B2E283226850691842C1D094
:102820006346002BBED013694B70A3690133A361CB
:10283000A38B013BA383E38B013B9BB2E383B1E713
:102840002000FFF765FD002813D100F00DFEC01B2E
:10285000864201D3002EA8D121000022202331314D
:1028600062620B704A70616B0B4363632300303309
:102870001A702268054913680B40136054E7C0467C
:10288000FFF7FFFF0000FFFF02000100FFFBFFFF5B
:102890007047704770477047704770477047704780
:1028A00070477047F7B5406A0100026831310E7811
:1028B0001468F3B2260001930023194C876AC56A95
:1028C0002640BB62AB621660C3837B636B630125EA
:1028D0001468AC4314600C78602C08D120220A7074
:1028E0000200323213704363FFF7DBFFF7BD282489
:1028F000019E3440282C0CD1166835431560802584
:102900001668ED003543156043620C70FFF7C8FF91
:10291000ECE720220A70020032321370F6E7C0465C
:10292000FFFBFFFF70B505000600313532362A780F
:10293000317804000368D2B2102910D1222A0ED1B6
:1029400019684548014019605968090503D4602A8F
:1029500001D020222A7000226262327006E0282113
:1029600011402829F0D10022626229705968802222
:10297000080012011040114248D05A683649A06A36
:102980000A405A60831CDA7F344B012A25D0436306
:10299000FFF7CAF9002809D00121226813688B4388
:1029A000136020232B70A06A436B98472B78626BCF
:1029B000DBB2520710D5282B0ED122682849536864
:1029C00020000B405360274B2022236200236362C8
:1029D0002A703370FFF761FF70BDE06A4363FFF751
:1029E000A3F90028E2D023685A69520605D51A696E
:1029F000A3691A70A3690133A361012122681368D6
:102A00008B43136020232B70E06ACDE72A78602A7D
:102A100014D1403A2A7060635A69520605D51A6982
:102A2000A3691A70A3690133A36101212268200000
:102A300013688B431360FFF734FFB7E75A695206F8
:102A400005D51A69A3691A70A3690133A36120002F
:102A5000FFF726FFAAE7C046FFF7FFFFA5280008FB
:102A6000FFF8FFFF0000FFFFF0B50400060025009F
:102A7000036832365A68016A37783135F8B28446CD
:102A800028788FB0C0B20190102F03D06746402F36
:102A900000D0A5E20127986984465869384209D1D7
:102AA000AA273F04B94203D0AA273F06B94240D122
:102AB0000FB0F0BD91053CD5AA22216A12049142C3
:102AC0000BD127623278402A14D1626C002A0CD1D3
:102AD000FE21A26B0A401A61EAE7AA22216A1206C5
:102AE0009142EFD108222262ECE70122A16B0A4356
:102AF000D2B2F0E72A78212A16D1FE21A26B0A4031
:102B00001A61A26A002A02D1E16A0029D0D0926A31
:102B1000002A03D1E26A926A002AC9D08022596849
:102B200012010A435A60C3E70122A16B0A43D2B2E1
:102B3000E6E7010703D5910501D5A26BF7E7810709
:102B400000D4E2E0910500D4DFE03178226A666AC1
:102B50002878C9B2222800D0CFE0606C002808D1C4
:102B6000402906D103905A6903929B690393039B02
:102B70009EE7E18B88B200290BD104905A69049238
:102B80009A690492049A8022196892000A431A6092
:102B90001AE0E18B01294CD1B3498A421ED11A684F
:102BA000B2490A401A605868802205001201154097
:102BB00010420CD01A680A401A60002205925A6925
:102BC00005929B690593059B0023636470E7069556
:102BD0005A6906929A690692069AD4E7082A1CD086
:102BE000202A1AD0122E0DD1012A16D11A689F4917
:102BF0000A401A60002207925A6907929B6907935C
:102C0000079BE1E70220911E814301D0102AEDD1FC
:102C100080221968D2000A43EBE71A6893490A40F8
:102C20001A60002208925A6908929A690892089AD2
:102C3000A9E7E18B186802293AD1102A03D88C49F8
:102C4000D140C9071DD48021090101431960002129
:102C500009915969854809919969099109991968F2
:102C60000140196059680905AED5202A1CD8072AE9
:102C700013D8012AA8D18022596852010A435A6008
:102C8000A2E78021C9000143196000210A91596916
:102C90000A9199690A910A99E4E7083A1100754A7C
:102CA000CA40D207E7D48FE76F498A428CD1E2E766
:102CB0008021C900014319605968090511D5202AEE
:102CC00017D8072A07D8012A0BD180225968520148
:102CD0000A435A6005E0083A1100664ACA40D20722
:102CE000F3D400220B925A690B929B690B930B9BB6
:102CF0006AE75D498A42F4D1E7E700220C925A69FB
:102D00000C929B690C930C9BD2E6674604210F4200
:102D100000D1B3E080215F6809010F4200D0C7E60F
:102D20000421014000067CD550057AD500297BD1CD
:102D30002A78A78B3178D2B2206AC9B2002F2AD163
:102D4000212A2AD14C49082811D020280FD0464AE0
:102D500090420CD05A680A405A60112363620023E3
:102D60003370203320002B70FFF792FDA0E65A68E5
:102D70000A405A608022196892000A431A600023B0
:102D8000202263622A70327820003370402AEBD10F
:102D9000FFF784FD8CE6212A05D0402900D087E684
:102DA000222A00D084E6E28B002A03D15A682F49F8
:102DB0000A40B7E63278402A29D1626C002A10D145
:102DC000226CFF21012A05D1E26B0A401A61636C73
:102DD0000233FAE6E26B12120A401A61636C0133A5
:102DE000F3E6626C012A02D1E26BD2B2F5E7626CC3
:102DF000022A00D05CE62A78222A04D11968DE3241
:102E00000A431A6054E62A78212A00D050E6A269C3
:102E1000117801321961A261E38B013B9BB2E3831C
:102E200046E6002900D143E6920500D440E6216A37
:102E30002A78212A00D03BE6E28B90B2002AE6D124
:102E40000D4F08290CD020290AD0074A914207D0FB
:102E50005A683A405A601123636230700F3381E739
:102E60005A683A4085E7C0460000FFFFFFFBFFFFBE
:102E70001400010001010001FFF8FFFF80215F68DD
:102E800009010F4200D013E604210140400643D55A
:102E9000500541D5002942D12A78222A00D007E6E0
:102EA000E28B90B2032A13D91A69A3691A70A36935
:102EB0000133A361E38B013B9BB2E383E38B032BE1
:102EC00000D0F5E52268B34953680B405360EFE545
:102ED000226A022A00D1EBE5012800D9E8E51A6848
:102EE000AC4802401A605A68AB4802405A601A69FE
:102EF000A3691A70A3690133A361E38B013B9BB201
:102F0000E38320232B7033783170402B62D16162D0
:102F10002000FFF7C4FCCBE5002900D1C8E59205ED
:102F200000D4C5E5226AE08BA169042809D15A685A
:102F3000984802405A601B690B70A3690133A36172
:102F40006AE7E08B03280BD15868924D023A28407B
:102F5000586002208243EED01A682A401A60EAE7DD
:102F6000E08B0228E7D1042A2FD007D8012A07D006
:102F7000022A2AD080221868920029E0102AF9D16A
:102F80001A68844802401A601B690B70A269834961
:102F9000531CA361E38B013B9BB2E38323681B6952
:102FA0005370A36922680133A361E38B013B9BB299
:102FB000E38353680B40536020232B700023327847
:102FC0003370402A06D16362A2E780221868D200DB
:102FD0000243D8E7122320006362FFF75AFC67E53B
:102FE000616B00291DD000215F69B80722D59005CB
:102FF00020D5626B002A00D0996928202A780240E7
:1030000020003030282A0FD15A68624D2A405A6079
:103010008B0800220121027099432000FFF73CFC3D
:1030200046E599695F69E0E7032252425A6100234D
:1030300003703DE5F90600D4B8E02F7856495A6888
:10304000FFB20A405A6000220D925A690D92012285
:1030500019680A431A600D9A4E491A680A401A60A4
:103060005A68120524D508223900914322294CD1EF
:10307000E06A0268526892B2E283E28B002A05D0CD
:10308000626B9446042261460A4362635A6844496B
:103090000A405A60FEF778FE012809D0E06A414BE9
:1030A0004363FEF741FE002802D0E06A436B984775
:1030B000E38B002B22D023685A69520709D51A697D
:1030C000A3691A70A3690133A361E38B013B9BB22F
:1030D000E38323685A69520609D51A69A3691A70ED
:1030E000A3690133A361E38B013B9BB2E383E38BD1
:1030F000002B03D00423626B13436363636B002BC9
:1031000022D02000FFF70EFCD2E4A06A02685268C9
:1031100092B2E283E28B002A05D0626B94460422CD
:1031200061460A4362635A681D490A405A60FEF7C5
:103130002BFE0128BCD0A06A1A4B4363FEF7F4FDB6
:103140000028B5D0A06AB1E72A2F05D163622823F1
:1031500020002B70FFF79FFB2B78282B0AD1124BF6
:10316000202223620023200063622A703370FFF75D
:1031700094FB9DE4636A222B02D0222F00D097E4B7
:103180000023202263622A7033702000FFF783FB44
:103190008EE4C046FFFBFFFFFFF8FFFFFFFCFFFFD1
:1031A000FFF7FFFFA52800080000FFFF0421082605
:1031B00001983940B043212831D13F0624D5560526
:1031C00022D5002923D12978E28BC9B2002A00D167
:1031D0006EE4A269167801321E61A261E28B013AA7
:1031E00092B2E283E28B002A00D061E4292900D068
:1031F0005EE45A6827490A405A602823606220002A
:103200002B70FFF747FB53E4002900D150E49205EF
:1032100000D44DE4E28B002A00D149E4F7E57F06B3
:1032200026D5500524D5002926D12A78E18BD2B2A3
:10323000002900D13CE41969A3691970A36901331D
:10324000A361E38B013B9BB2E383E38B002B01D0B3
:10325000FFF72EFC2A2A01D0FFF72AFC22680D492D
:1032600053680B4053602223636206332B708CE754
:10327000002901D1FFF71CFC920501D4FFF718FCCF
:10328000E28B002A01D1FFF713FC1A69A3691A70B7
:1032900053E6C046FFFBFFFF0368F0B55F6980227D
:1032A0003D00520004005E6885B0154017420BD007
:1032B00035001540164207D0454A01255A61802243
:1032C000196812020A431A60BA0505D5F20503D53A
:1032D000022215433F4A5A617A053FD5F2053DD592
:1032E0002200200032320092127831300392E18BBA
:1032F000019002780398D2B29446626A89B202922F
:10330000354A202853D1002951D1604608318843DD
:10331000212805D06146282949D10299212946D181
:1033200001990978206AC9B2082801D0202825D13E
:10333000282923D129492A48216259680140596026
:103340005A61196820000A401A600023202201995E
:1033500063620A70009A1370FFF79FFA3F0533D536
:10336000F60531D508231F4A1D4323685A61636B54
:1033700020002B436363FFF7D5FA27E0212914D1FE
:10338000164820620198616201390170002100989D
:10339000017059681248014059605A61196820004B
:1033A0000A401A60FFF776FAD8E75A61D6E75A6101
:1033B00004221543009A1278102ACFD11968F132ED
:1033C000FF320A431A60C9E7002DD0D105B0F0BD25
:1033D000FFFEFFFFFFFDFFFFFFFBFFFF0000FFFF02
:1033E000FFF8FFFFFFF7FFFF104B70B519680500EE
:1033F000002901D1012070BDFA208000FCF72EFFCA
:103400000B4C01002068FCF729FFFEF767FF041E44
:10341000F0D1032DEED80200012029004042FEF732
:1034200033FF044B20001D60E5E7C046CC000020C0
:10343000D4000020D000002010B50320FFF7D4FFF7
:10344000041E03D1FDF7E4F9200010BD0124FBE7C1
:10345000034A0449136809685B1813607047C04643
:10346000E0010020CC000020014B18687047C046E6
:10347000E001002070B50400FFF7F6FF0500631CB3
:1034800002D0044B1B68E418FFF7EEFF401BA0427C
:10349000FAD370BDCC0000203822114910B58B68DA
:1034A0001340082B16D0182B16D007244B680D4854
:1034B0005B0B0A6823409B001B58D20A2240D34072
:1034C0008A6809491205120F920052580748D340E2
:1034D000036010BD064BF3E780231B02F0E7C046F4
:1034E000001002401836000858360008D4000020AA
:1034F00000366E010C490D4A4B6812681B0C1B0408
:10350000134380229201134310B54B600023084CF3
:1035100008499A00105901335050302BF9D18022BC
:10352000054B92059A6010BD00100240040FFF1F6A
:10353000000000080000002000ED00E00D48854676
:103540000D480E490E4A002302E0D458C4500433FB
:10355000C4188C42F9D30B4A0B4C002301E01360D2
:103560000432A242FBD3FFF7C5FFFCF7F5FDFDF7E0
:103570005BFCFEE700080020C0000020D80000200F
:10358000A0360008D8000020E4010020FEE700007B
:10359000F8B5C046F8BC08BC9E467047F8B5C046B2
:0835A000F8BC08BC9E46704710
:1035A800012370B50C4C626913436361EFF3108516
:1035B80072B680260023091A36030A580133DBB293
:1035C80004C01F2B03D1626932436261F5E7202BE7
:0C35D800F3D185F3108870BD0020024084
:1035E40000093D0000127A000024F40040865101D5
:1035F40000366E011C0FFF1F300FFF1F440FFF1F0B
:10360400580FFF1F6C0FFF1F1C0FFF1F1C0FFF1F06
:103614001C0FFF1F00093D0000127A000024F40073
:103624004086510100366E0100093D0000093D004D
:1036340000093D0000000000000000000000000040
:103644000000000001000000020000000300000070
:103654000400000000000000000000000000000062
:103664000000000000000000000000000000000056
:103674000000000001000000020000000300000040
:10368400040000000600000007000000080000001D
:043694000900000029
:0436980035010008F0
:04369C000901000818
:1036A000E7033200B8010100D0070000010000006C
:0836B0000400000000127A0082
:040000050800353D7D
:00000001FF
